{
  "abi": [
    {
      "inputs": [
        {
          "internalType": "address",
          "name": "feeRecipient",
          "type": "address"
        },
        {
          "internalType": "uint256",
          "name": "flashLoanFee",
          "type": "uint256"
        }
      ],
      "stateMutability": "nonpayable",
      "type": "constructor"
    },
    {
      "inputs": [],
      "name": "LBFactory__AddressZero",
      "type": "error"
    },
    {
      "inputs": [
        {
          "internalType": "uint256",
          "name": "binStep",
          "type": "uint256"
        }
      ],
      "name": "LBFactory__BinStepHasNoPreset",
      "type": "error"
    },
    {
      "inputs": [
        {
          "internalType": "uint256",
          "name": "binStep",
          "type": "uint256"
        }
      ],
      "name": "LBFactory__BinStepTooLow",
      "type": "error"
    },
    {
      "inputs": [
        {
          "internalType": "uint256",
          "name": "fees",
          "type": "uint256"
        },
        {
          "internalType": "uint256",
          "name": "maxFees",
          "type": "uint256"
        }
      ],
      "name": "LBFactory__FlashLoanFeeAboveMax",
      "type": "error"
    },
    {
      "inputs": [
        {
          "internalType": "address",
          "name": "user",
          "type": "address"
        },
        {
          "internalType": "uint256",
          "name": "binStep",
          "type": "uint256"
        }
      ],
      "name": "LBFactory__FunctionIsLockedForUsers",
      "type": "error"
    },
    {
      "inputs": [
        {
          "internalType": "contract IERC20",
          "name": "token",
          "type": "address"
        }
      ],
      "name": "LBFactory__IdenticalAddresses",
      "type": "error"
    },
    {
      "inputs": [],
      "name": "LBFactory__ImplementationNotSet",
      "type": "error"
    },
    {
      "inputs": [
        {
          "internalType": "contract IERC20",
          "name": "tokenX",
          "type": "address"
        },
        {
          "internalType": "contract IERC20",
          "name": "tokenY",
          "type": "address"
        },
        {
          "internalType": "uint256",
          "name": "_binStep",
          "type": "uint256"
        }
      ],
      "name": "LBFactory__LBPairAlreadyExists",
      "type": "error"
    },
    {
      "inputs": [
        {
          "internalType": "contract IERC20",
          "name": "tokenX",
          "type": "address"
        },
        {
          "internalType": "contract IERC20",
          "name": "tokenY",
          "type": "address"
        },
        {
          "internalType": "uint256",
          "name": "binStep",
          "type": "uint256"
        }
      ],
      "name": "LBFactory__LBPairDoesNotExist",
      "type": "error"
    },
    {
      "inputs": [],
      "name": "LBFactory__LBPairIgnoredIsAlreadyInTheSameState",
      "type": "error"
    },
    {
      "inputs": [
        {
          "internalType": "contract IERC20",
          "name": "tokenX",
          "type": "address"
        },
        {
          "internalType": "contract IERC20",
          "name": "tokenY",
          "type": "address"
        },
        {
          "internalType": "uint256",
          "name": "binStep",
          "type": "uint256"
        }
      ],
      "name": "LBFactory__LBPairNotCreated",
      "type": "error"
    },
    {
      "inputs": [
        {
          "internalType": "address",
          "name": "LBPairImplementation",
          "type": "address"
        }
      ],
      "name": "LBFactory__LBPairSafetyCheckFailed",
      "type": "error"
    },
    {
      "inputs": [],
      "name": "LBFactory__PresetOpenStateIsAlreadyInTheSameState",
      "type": "error"
    },
    {
      "inputs": [
        {
          "internalType": "contract IERC20",
          "name": "quoteAsset",
          "type": "address"
        }
      ],
      "name": "LBFactory__QuoteAssetAlreadyWhitelisted",
      "type": "error"
    },
    {
      "inputs": [
        {
          "internalType": "contract IERC20",
          "name": "quoteAsset",
          "type": "address"
        }
      ],
      "name": "LBFactory__QuoteAssetNotWhitelisted",
      "type": "error"
    },
    {
      "inputs": [
        {
          "internalType": "address",
          "name": "feeRecipient",
          "type": "address"
        }
      ],
      "name": "LBFactory__SameFeeRecipient",
      "type": "error"
    },
    {
      "inputs": [
        {
          "internalType": "uint256",
          "name": "flashLoanFee",
          "type": "uint256"
        }
      ],
      "name": "LBFactory__SameFlashLoanFee",
      "type": "error"
    },
    {
      "inputs": [
        {
          "internalType": "address",
          "name": "LBPairImplementation",
          "type": "address"
        }
      ],
      "name": "LBFactory__SameImplementation",
      "type": "error"
    },
    {
      "inputs": [],
      "name": "PairParametersHelper__InvalidParameter",
      "type": "error"
    },
    {
      "inputs": [],
      "name": "PendingOwnable__AddressZero",
      "type": "error"
    },
    {
      "inputs": [],
      "name": "PendingOwnable__NoPendingOwner",
      "type": "error"
    },
    {
      "inputs": [],
      "name": "PendingOwnable__NotOwner",
      "type": "error"
    },
    {
      "inputs": [],
      "name": "PendingOwnable__NotPendingOwner",
      "type": "error"
    },
    {
      "inputs": [],
      "name": "PendingOwnable__PendingOwnerAlreadySet",
      "type": "error"
    },
    {
      "inputs": [],
      "name": "SafeCast__Exceeds16Bits",
      "type": "error"
    },
    {
      "inputs": [
        {
          "internalType": "uint256",
          "name": "x",
          "type": "uint256"
        },
        {
          "internalType": "int256",
          "name": "y",
          "type": "int256"
        }
      ],
      "name": "Uint128x128Math__PowUnderflow",
      "type": "error"
    },
    {
      "anonymous": false,
      "inputs": [
        {
          "indexed": false,
          "internalType": "address",
          "name": "oldRecipient",
          "type": "address"
        },
        {
          "indexed": false,
          "internalType": "address",
          "name": "newRecipient",
          "type": "address"
        }
      ],
      "name": "FeeRecipientSet",
      "type": "event"
    },
    {
      "anonymous": false,
      "inputs": [
        {
          "indexed": false,
          "internalType": "uint256",
          "name": "oldFlashLoanFee",
          "type": "uint256"
        },
        {
          "indexed": false,
          "internalType": "uint256",
          "name": "newFlashLoanFee",
          "type": "uint256"
        }
      ],
      "name": "FlashLoanFeeSet",
      "type": "event"
    },
    {
      "anonymous": false,
      "inputs": [
        {
          "indexed": true,
          "internalType": "contract IERC20",
          "name": "tokenX",
          "type": "address"
        },
        {
          "indexed": true,
          "internalType": "contract IERC20",
          "name": "tokenY",
          "type": "address"
        },
        {
          "indexed": true,
          "internalType": "uint256",
          "name": "binStep",
          "type": "uint256"
        },
        {
          "indexed": false,
          "internalType": "contract ILBPair",
          "name": "LBPair",
          "type": "address"
        },
        {
          "indexed": false,
          "internalType": "uint256",
          "name": "pid",
          "type": "uint256"
        }
      ],
      "name": "LBPairCreated",
      "type": "event"
    },
    {
      "anonymous": false,
      "inputs": [
        {
          "indexed": true,
          "internalType": "contract ILBPair",
          "name": "LBPair",
          "type": "address"
        },
        {
          "indexed": false,
          "internalType": "bool",
          "name": "ignored",
          "type": "bool"
        }
      ],
      "name": "LBPairIgnoredStateChanged",
      "type": "event"
    },
    {
      "anonymous": false,
      "inputs": [
        {
          "indexed": false,
          "internalType": "address",
          "name": "oldLBPairImplementation",
          "type": "address"
        },
        {
          "indexed": false,
          "internalType": "address",
          "name": "LBPairImplementation",
          "type": "address"
        }
      ],
      "name": "LBPairImplementationSet",
      "type": "event"
    },
    {
      "anonymous": false,
      "inputs": [
        {
          "indexed": true,
          "internalType": "address",
          "name": "previousOwner",
          "type": "address"
        },
        {
          "indexed": true,
          "internalType": "address",
          "name": "newOwner",
          "type": "address"
        }
      ],
      "name": "OwnershipTransferred",
      "type": "event"
    },
    {
      "anonymous": false,
      "inputs": [
        {
          "indexed": true,
          "internalType": "address",
          "name": "pendingOwner",
          "type": "address"
        }
      ],
      "name": "PendingOwnerSet",
      "type": "event"
    },
    {
      "anonymous": false,
      "inputs": [
        {
          "indexed": true,
          "internalType": "uint256",
          "name": "binStep",
          "type": "uint256"
        },
        {
          "indexed": true,
          "internalType": "bool",
          "name": "isOpen",
          "type": "bool"
        }
      ],
      "name": "PresetOpenStateChanged",
      "type": "event"
    },
    {
      "anonymous": false,
      "inputs": [
        {
          "indexed": true,
          "internalType": "uint256",
          "name": "binStep",
          "type": "uint256"
        }
      ],
      "name": "PresetRemoved",
      "type": "event"
    },
    {
      "anonymous": false,
      "inputs": [
        {
          "indexed": true,
          "internalType": "uint256",
          "name": "binStep",
          "type": "uint256"
        },
        {
          "indexed": false,
          "internalType": "uint256",
          "name": "baseFactor",
          "type": "uint256"
        },
        {
          "indexed": false,
          "internalType": "uint256",
          "name": "filterPeriod",
          "type": "uint256"
        },
        {
          "indexed": false,
          "internalType": "uint256",
          "name": "decayPeriod",
          "type": "uint256"
        },
        {
          "indexed": false,
          "internalType": "uint256",
          "name": "reductionFactor",
          "type": "uint256"
        },
        {
          "indexed": false,
          "internalType": "uint256",
          "name": "variableFeeControl",
          "type": "uint256"
        },
        {
          "indexed": false,
          "internalType": "uint256",
          "name": "protocolShare",
          "type": "uint256"
        },
        {
          "indexed": false,
          "internalType": "uint256",
          "name": "maxVolatilityAccumulator",
          "type": "uint256"
        }
      ],
      "name": "PresetSet",
      "type": "event"
    },
    {
      "anonymous": false,
      "inputs": [
        {
          "indexed": true,
          "internalType": "contract IERC20",
          "name": "quoteAsset",
          "type": "address"
        }
      ],
      "name": "QuoteAssetAdded",
      "type": "event"
    },
    {
      "anonymous": false,
      "inputs": [
        {
          "indexed": true,
          "internalType": "contract IERC20",
          "name": "quoteAsset",
          "type": "address"
        }
      ],
      "name": "QuoteAssetRemoved",
      "type": "event"
    },
    {
      "inputs": [
        {
          "internalType": "contract IERC20",
          "name": "quoteAsset",
          "type": "address"
        }
      ],
      "name": "addQuoteAsset",
      "outputs": [],
      "stateMutability": "nonpayable",
      "type": "function"
    },
    {
      "inputs": [],
      "name": "becomeOwner",
      "outputs": [],
      "stateMutability": "nonpayable",
      "type": "function"
    },
    {
      "inputs": [
        {
          "internalType": "contract IERC20",
          "name": "tokenX",
          "type": "address"
        },
        {
          "internalType": "contract IERC20",
          "name": "tokenY",
          "type": "address"
        },
        {
          "internalType": "uint24",
          "name": "activeId",
          "type": "uint24"
        },
        {
          "internalType": "uint16",
          "name": "binStep",
          "type": "uint16"
        }
      ],
      "name": "createLBPair",
      "outputs": [
        {
          "internalType": "contract ILBPair",
          "name": "pair",
          "type": "address"
        }
      ],
      "stateMutability": "nonpayable",
      "type": "function"
    },
    {
      "inputs": [
        {
          "internalType": "contract ILBPair",
          "name": "pair",
          "type": "address"
        }
      ],
      "name": "forceDecay",
      "outputs": [],
      "stateMutability": "nonpayable",
      "type": "function"
    },
    {
      "inputs": [],
      "name": "getAllBinSteps",
      "outputs": [
        {
          "internalType": "uint256[]",
          "name": "binStepWithPreset",
          "type": "uint256[]"
        }
      ],
      "stateMutability": "view",
      "type": "function"
    },
    {
      "inputs": [
        {
          "internalType": "contract IERC20",
          "name": "tokenX",
          "type": "address"
        },
        {
          "internalType": "contract IERC20",
          "name": "tokenY",
          "type": "address"
        }
      ],
      "name": "getAllLBPairs",
      "outputs": [
        {
          "components": [
            {
              "internalType": "uint16",
              "name": "binStep",
              "type": "uint16"
            },
            {
              "internalType": "contract ILBPair",
              "name": "LBPair",
              "type": "address"
            },
            {
              "internalType": "bool",
              "name": "createdByOwner",
              "type": "bool"
            },
            {
              "internalType": "bool",
              "name": "ignoredForRouting",
              "type": "bool"
            }
          ],
          "internalType": "struct ILBFactory.LBPairInformation[]",
          "name": "lbPairsAvailable",
          "type": "tuple[]"
        }
      ],
      "stateMutability": "view",
      "type": "function"
    },
    {
      "inputs": [],
      "name": "getFeeRecipient",
      "outputs": [
        {
          "internalType": "address",
          "name": "feeRecipient",
          "type": "address"
        }
      ],
      "stateMutability": "view",
      "type": "function"
    },
    {
      "inputs": [],
      "name": "getFlashLoanFee",
      "outputs": [
        {
          "internalType": "uint256",
          "name": "flashloanFee",
          "type": "uint256"
        }
      ],
      "stateMutability": "view",
      "type": "function"
    },
    {
      "inputs": [
        {
          "internalType": "uint256",
          "name": "index",
          "type": "uint256"
        }
      ],
      "name": "getLBPairAtIndex",
      "outputs": [
        {
          "internalType": "contract ILBPair",
          "name": "lbPair",
          "type": "address"
        }
      ],
      "stateMutability": "view",
      "type": "function"
    },
    {
      "inputs": [],
      "name": "getLBPairImplementation",
      "outputs": [
        {
          "internalType": "address",
          "name": "lbPairImplementation",
          "type": "address"
        }
      ],
      "stateMutability": "view",
      "type": "function"
    },
    {
      "inputs": [
        {
          "internalType": "contract IERC20",
          "name": "tokenA",
          "type": "address"
        },
        {
          "internalType": "contract IERC20",
          "name": "tokenB",
          "type": "address"
        },
        {
          "internalType": "uint256",
          "name": "binStep",
          "type": "uint256"
        }
      ],
      "name": "getLBPairInformation",
      "outputs": [
        {
          "components": [
            {
              "internalType": "uint16",
              "name": "binStep",
              "type": "uint16"
            },
            {
              "internalType": "contract ILBPair",
              "name": "LBPair",
              "type": "address"
            },
            {
              "internalType": "bool",
              "name": "createdByOwner",
              "type": "bool"
            },
            {
              "internalType": "bool",
              "name": "ignoredForRouting",
              "type": "bool"
            }
          ],
          "internalType": "struct ILBFactory.LBPairInformation",
          "name": "lbPairInformation",
          "type": "tuple"
        }
      ],
      "stateMutability": "view",
      "type": "function"
    },
    {
      "inputs": [],
      "name": "getMaxFlashLoanFee",
      "outputs": [
        {
          "internalType": "uint256",
          "name": "maxFee",
          "type": "uint256"
        }
      ],
      "stateMutability": "pure",
      "type": "function"
    },
    {
      "inputs": [],
      "name": "getMinBinStep",
      "outputs": [
        {
          "internalType": "uint256",
          "name": "minBinStep",
          "type": "uint256"
        }
      ],
      "stateMutability": "pure",
      "type": "function"
    },
    {
      "inputs": [],
      "name": "getNumberOfLBPairs",
      "outputs": [
        {
          "internalType": "uint256",
          "name": "lbPairNumber",
          "type": "uint256"
        }
      ],
      "stateMutability": "view",
      "type": "function"
    },
    {
      "inputs": [],
      "name": "getNumberOfQuoteAssets",
      "outputs": [
        {
          "internalType": "uint256",
          "name": "numberOfQuoteAssets",
          "type": "uint256"
        }
      ],
      "stateMutability": "view",
      "type": "function"
    },
    {
      "inputs": [
        {
          "internalType": "uint256",
          "name": "binStep",
          "type": "uint256"
        }
      ],
      "name": "getPreset",
      "outputs": [
        {
          "internalType": "uint256",
          "name": "baseFactor",
          "type": "uint256"
        },
        {
          "internalType": "uint256",
          "name": "filterPeriod",
          "type": "uint256"
        },
        {
          "internalType": "uint256",
          "name": "decayPeriod",
          "type": "uint256"
        },
        {
          "internalType": "uint256",
          "name": "reductionFactor",
          "type": "uint256"
        },
        {
          "internalType": "uint256",
          "name": "variableFeeControl",
          "type": "uint256"
        },
        {
          "internalType": "uint256",
          "name": "protocolShare",
          "type": "uint256"
        },
        {
          "internalType": "uint256",
          "name": "maxVolatilityAccumulator",
          "type": "uint256"
        },
        {
          "internalType": "bool",
          "name": "isOpen",
          "type": "bool"
        }
      ],
      "stateMutability": "view",
      "type": "function"
    },
    {
      "inputs": [
        {
          "internalType": "uint256",
          "name": "index",
          "type": "uint256"
        }
      ],
      "name": "getQuoteAssetAtIndex",
      "outputs": [
        {
          "internalType": "contract IERC20",
          "name": "asset",
          "type": "address"
        }
      ],
      "stateMutability": "view",
      "type": "function"
    },
    {
      "inputs": [
        {
          "internalType": "contract IERC20",
          "name": "token",
          "type": "address"
        }
      ],
      "name": "isQuoteAsset",
      "outputs": [
        {
          "internalType": "bool",
          "name": "isQuote",
          "type": "bool"
        }
      ],
      "stateMutability": "view",
      "type": "function"
    },
    {
      "inputs": [],
      "name": "owner",
      "outputs": [
        {
          "internalType": "address",
          "name": "",
          "type": "address"
        }
      ],
      "stateMutability": "view",
      "type": "function"
    },
    {
      "inputs": [],
      "name": "pendingOwner",
      "outputs": [
        {
          "internalType": "address",
          "name": "",
          "type": "address"
        }
      ],
      "stateMutability": "view",
      "type": "function"
    },
    {
      "inputs": [
        {
          "internalType": "uint16",
          "name": "binStep",
          "type": "uint16"
        }
      ],
      "name": "removePreset",
      "outputs": [],
      "stateMutability": "nonpayable",
      "type": "function"
    },
    {
      "inputs": [
        {
          "internalType": "contract IERC20",
          "name": "quoteAsset",
          "type": "address"
        }
      ],
      "name": "removeQuoteAsset",
      "outputs": [],
      "stateMutability": "nonpayable",
      "type": "function"
    },
    {
      "inputs": [],
      "name": "renounceOwnership",
      "outputs": [],
      "stateMutability": "nonpayable",
      "type": "function"
    },
    {
      "inputs": [],
      "name": "revokePendingOwner",
      "outputs": [],
      "stateMutability": "nonpayable",
      "type": "function"
    },
    {
      "inputs": [
        {
          "internalType": "address",
          "name": "feeRecipient",
          "type": "address"
        }
      ],
      "name": "setFeeRecipient",
      "outputs": [],
      "stateMutability": "nonpayable",
      "type": "function"
    },
    {
      "inputs": [
        {
          "internalType": "contract IERC20",
          "name": "tokenX",
          "type": "address"
        },
        {
          "internalType": "contract IERC20",
          "name": "tokenY",
          "type": "address"
        },
        {
          "internalType": "uint16",
          "name": "binStep",
          "type": "uint16"
        },
        {
          "internalType": "uint16",
          "name": "baseFactor",
          "type": "uint16"
        },
        {
          "internalType": "uint16",
          "name": "filterPeriod",
          "type": "uint16"
        },
        {
          "internalType": "uint16",
          "name": "decayPeriod",
          "type": "uint16"
        },
        {
          "internalType": "uint16",
          "name": "reductionFactor",
          "type": "uint16"
        },
        {
          "internalType": "uint24",
          "name": "variableFeeControl",
          "type": "uint24"
        },
        {
          "internalType": "uint16",
          "name": "protocolShare",
          "type": "uint16"
        },
        {
          "internalType": "uint24",
          "name": "maxVolatilityAccumulator",
          "type": "uint24"
        }
      ],
      "name": "setFeesParametersOnPair",
      "outputs": [],
      "stateMutability": "nonpayable",
      "type": "function"
    },
    {
      "inputs": [
        {
          "internalType": "uint256",
          "name": "flashLoanFee",
          "type": "uint256"
        }
      ],
      "name": "setFlashLoanFee",
      "outputs": [],
      "stateMutability": "nonpayable",
      "type": "function"
    },
    {
      "inputs": [
        {
          "internalType": "contract IERC20",
          "name": "tokenX",
          "type": "address"
        },
        {
          "internalType": "contract IERC20",
          "name": "tokenY",
          "type": "address"
        },
        {
          "internalType": "uint16",
          "name": "binStep",
          "type": "uint16"
        },
        {
          "internalType": "bool",
          "name": "ignored",
          "type": "bool"
        }
      ],
      "name": "setLBPairIgnored",
      "outputs": [],
      "stateMutability": "nonpayable",
      "type": "function"
    },
    {
      "inputs": [
        {
          "internalType": "address",
          "name": "newLBPairImplementation",
          "type": "address"
        }
      ],
      "name": "setLBPairImplementation",
      "outputs": [],
      "stateMutability": "nonpayable",
      "type": "function"
    },
    {
      "inputs": [
        {
          "internalType": "address",
          "name": "pendingOwner_",
          "type": "address"
        }
      ],
      "name": "setPendingOwner",
      "outputs": [],
      "stateMutability": "nonpayable",
      "type": "function"
    },
    {
      "inputs": [
        {
          "internalType": "uint16",
          "name": "binStep",
          "type": "uint16"
        },
        {
          "internalType": "uint16",
          "name": "baseFactor",
          "type": "uint16"
        },
        {
          "internalType": "uint16",
          "name": "filterPeriod",
          "type": "uint16"
        },
        {
          "internalType": "uint16",
          "name": "decayPeriod",
          "type": "uint16"
        },
        {
          "internalType": "uint16",
          "name": "reductionFactor",
          "type": "uint16"
        },
        {
          "internalType": "uint24",
          "name": "variableFeeControl",
          "type": "uint24"
        },
        {
          "internalType": "uint16",
          "name": "protocolShare",
          "type": "uint16"
        },
        {
          "internalType": "uint24",
          "name": "maxVolatilityAccumulator",
          "type": "uint24"
        },
        {
          "internalType": "bool",
          "name": "isOpen",
          "type": "bool"
        }
      ],
      "name": "setPreset",
      "outputs": [],
      "stateMutability": "nonpayable",
      "type": "function"
    },
    {
      "inputs": [
        {
          "internalType": "uint16",
          "name": "binStep",
          "type": "uint16"
        },
        {
          "internalType": "bool",
          "name": "isOpen",
          "type": "bool"
        }
      ],
      "name": "setPresetOpenState",
      "outputs": [],
      "stateMutability": "nonpayable",
      "type": "function"
    }
  ],
  "bytecode": {
    "object": "0x60806040523480156200001157600080fd5b5060405162002a2e38038062002a2e8339810160408190526200003491620001f4565b6200003f33620000d1565b67016345785d8a00008111156200007f57604051635e8988c160e01b81526004810182905267016345785d8a000060248201526044015b60405180910390fd5b6200008a826200012b565b60038190556040805160008152602081018390527f5c34e91c94c78b662a45d0bd4a25a4e32c584c54a45a76e4a4d43be27ba40e50910160405180910390a1505062000230565b600080546001600160a01b038381166001600160a01b031980841682178555600180549091169055604051919092169283917f8be0079c531659141344cd1fd0a4f28419497f9722a3daafe3b4186f6b6457e09190a35050565b6001600160a01b0381166200015357604051632573cfb960e21b815260040160405180910390fd5b6002546001600160a01b039081169082168114156200019557600254604051634fcea97160e01b81526001600160a01b03909116600482015260240162000076565b600280546001600160a01b0319166001600160a01b0384811691821790925560408051928416835260208301919091527f15d80a013f22151bc7246e3bc132e12828cde19de98870475e3fa70840152721910160405180910390a15050565b600080604083850312156200020857600080fd5b82516001600160a01b03811681146200022057600080fd5b6020939093015192949293505050565b6127ee80620002406000396000f3fe608060405234801561001057600080fd5b50600436106101f05760003560e01c8063715018a61161010f578063c42069ec116100a2578063e74b981b11610071578063e74b981b14610456578063e92d0d5d14610469578063f9dca9891461047c578063fd90c2be1461048457600080fd5b8063c42069ec1461040c578063ddbfd9411461041f578063e203a31f14610432578063e30c39781461044557600080fd5b80638da5cb5b116100de5780638da5cb5b14610387578063aabc4b3c14610398578063af371065146103e8578063b0384781146103f957600080fd5b8063715018a6146103565780637daf5d661461035e57806380c5061e146103715780638ce9aa1c1461037957600080fd5b80635a4409231161018757806367ab8a4e1161015657806367ab8a4e1461031457806369d56ea31461031c578063701ab8c11461032f578063704037bd1461033657600080fd5b80635a440923146102b95780635b35875c146102cc578063659ac74b146102e15780636622e0d7146102f457600080fd5b80633c78a941116101c35780633c78a941146102705780634ccb20c0146102835780634cd161d3146102945780634e937c3a146102a757600080fd5b80630752092b146101f5578063093ff76914610225578063277218421461023a578063379ee8031461025d575b600080fd5b6102086102033660046122cb565b61048c565b6040516001600160a01b0390911681526020015b60405180910390f35b61023861023336600461231e565b61049f565b005b61024d6102483660046123dc565b6105c8565b604051901515815260200161021c565b61023861026b366004612409565b6105d5565b61023861027e3660046123dc565b610714565b6002546001600160a01b0316610208565b6102386102a23660046124b1565b610795565b6005545b60405190815260200161021c565b6102386102c73660046123dc565b610884565b6102d4610919565b60405161021c91906124e4565b6102086102ef366004612528565b61092a565b610307610302366004612580565b610e99565b60405161021c91906125b9565b610238611031565b61023861032a36600461262d565b611091565b60016102ab565b61034961034436600461267a565b61123f565b60405161021c91906126bb565b610238611276565b61020861036c3660046122cb565b6112ab565b6102ab6112db565b67016345785d8a00006102ab565b6000546001600160a01b0316610208565b6103ab6103a63660046122cb565b6112e7565b604080519889526020890197909752958701949094526060860192909252608085015260a084015260c0830152151560e08201526101000161021c565b6004546001600160a01b0316610208565b6102386104073660046123dc565b6113a8565b61023861041a3660046123dc565b61150d565b61023861042d3660046123dc565b611595565b6102386104403660046126f7565b61162a565b6001546001600160a01b0316610208565b6102386104643660046123dc565b6116b9565b6102386104773660046122cb565b6116ed565b6102386117b4565b6003546102ab565b6000610499600a836117f3565b92915050565b6000546001600160a01b031633146104ca57604051639f216c1360e01b815260040160405180910390fd5b60006104db8b8b8b61ffff16611806565b6020015190506001600160a01b03811661052a5760405163b65ee95360e01b81526001600160a01b03808d1660048301528b16602482015261ffff8a1660448201526064015b60405180910390fd5b604051633329c28d60e11b815261ffff808a16600483015280891660248301528088166044830152808716606483015262ffffff808716608484015290851660a4830152831660c48201526001600160a01b03821690636653851a9060e401600060405180830381600087803b1580156105a357600080fd5b505af11580156105b7573d6000803e3d6000fd5b505050505050505050505050505050565b6000610499600a836118b0565b6000546001600160a01b0316331461060057604051639f216c1360e01b815260040160405180910390fd5b60018961ffff16101561062c57604051634f958e7160e01b815261ffff8a166004820152602401610521565b600061063e818a8a8a8a8a8a8a6118d2565b905081156106565761065381600160ff6119db565b90505b610666600761ffff8c1683611a02565b506040805161ffff8b811682528a8116602083015289811682840152888116606083015262ffffff888116608084015287821660a0840152861660c08301529151918c16917f839844a256a87f87c9c835117d9a1c40be013954064c937072acb32d36db6a289181900360e00190a26040518215159061ffff8c16907f58a8b6a02b964cca2712e5a71d7b0d564a56b4a0f573b4c47f389341ade14cfd90600090a350505050505050505050565b6000546001600160a01b0316331461073f57604051639f216c1360e01b815260040160405180910390fd5b806001600160a01b031663d3b9fbe46040518163ffffffff1660e01b8152600401600060405180830381600087803b15801561077a57600080fd5b505af115801561078e573d6000803e3d6000fd5b5050505050565b6000546001600160a01b031633146107c057604051639f216c1360e01b815260040160405180910390fd5b6107cf600761ffff8416611a0f565b6107f257604051637d9160bf60e11b815261ffff83166004820152602401610521565b6000610803600761ffff8516611a1b565b905081151560ff82901c1515141561082e576040516311be38db60e11b815260040160405180910390fd5b61084b61ffff8416610842838560ff6119db565b60079190611a02565b506040518215159061ffff8516907f58a8b6a02b964cca2712e5a71d7b0d564a56b4a0f573b4c47f389341ade14cfd90600090a3505050565b6000546001600160a01b031633146108af57604051639f216c1360e01b815260040160405180910390fd5b6108ba600a82611a27565b6108e2576040516303ce0ad960e01b81526001600160a01b0382166004820152602401610521565b6040516001600160a01b038216907f84cc2115995684dcb0cd3d3a9565e3d32f075de81db70c8dc3a719b2a47af67e90600090a250565b60606109256007611a3c565b905090565b600061093b600761ffff8416611a0f565b61095e57604051637d9160bf60e11b815261ffff83166004820152602401610521565b600061096f600761ffff8516611a1b565b905061097a81611a49565b15801561099257506000546001600160a01b03163314155b156109bc5760405163c0c662f960e01b815233600482015261ffff84166024820152604401610521565b6004546001600160a01b0316806109e6576040516328b4fcf960e21b815260040160405180910390fd5b6109f1600a876118b0565b610a1957604051638e888ef360e01b81526001600160a01b0387166004820152602401610521565b856001600160a01b0316876001600160a01b03161415610a5757604051632f9b185360e01b81526001600160a01b0388166004820152602401610521565b610a618585611a55565b50600080610a6f8989611a99565b90925090506001600160a01b038216610a9b57604051632573cfb960e21b815260040160405180910390fd5b6001600160a01b0382811660009081526006602090815260408083208585168452825280832061ffff8b1684529091529020546201000090041615610b105760405163cb27a43560e01b81526001600160a01b03808b1660048301528916602482015261ffff87166044820152606401610521565b6040516bffffffffffffffffffffffff1960608b811b821660208401528a901b1660348201527fffff00000000000000000000000000000000000000000000000000000000000060f088901b166048820152610bbd908490604a0160408051601f198184030181528282526001600160a01b03808816602085015286169183019190915261ffff8a1660608301529060800160405160208183030381529060405280519060200120611ac2565b9450846001600160a01b03166347973bff610bd786611b7d565b610be087611b89565b610be988611b99565b610bf289611ba9565b610bfb8a611bb9565b610c048b611bca565b610c0d8c611bda565b6040517fffffffff0000000000000000000000000000000000000000000000000000000060e08a901b16815261ffff978816600482015295871660248701529386166044860152918516606485015262ffffff9081166084850152931660a4830152821660c4820152908a1660e482015261010401600060405180830381600087803b158015610c9c57600080fd5b505af1158015610cb0573d6000803e3d6000fd5b5050505060405180608001604052808761ffff168152602001866001600160a01b03168152602001610cea6000546001600160a01b031690565b336001600160a01b039182161482526000602092830181905285821680825260068452604080832087851680855290865281842061ffff808f16808752918852838620895181548b8b01518c8801516060909d01511515600160b81b0260ff60b81b199d1515600160b01b029d909d167fffffffffffffffff0000ffffffffffffffffffffffffffffffffffffffffffff918c1662010000027fffffffffffffffffffff0000000000000000000000000000000000000000000090931693909516929092171716919091179890981790975560058054600181019091557f036b6384b5eca791c62761152d0c79bb0604c104a5fb6f4eb0703f3154bb3db0018054958d166001600160a01b031990961695909517909455908252600c8452808220928252919092529020610e1d91611beb565b508561ffff16886001600160a01b03168a6001600160a01b03167f2c8d104b27c6b7f4492017a6f5cf3803043688934ebcaa6a03540beeaf976aff886001600580549050610e6b9190612712565b604080516001600160a01b03909316835260208301919091520160405180910390a450505050949350505050565b6060600080610ea88585611a99565b6001600160a01b038083166000908152600c602090815260408083209385168352929052908120929450909250610ede82611bf7565b90508015611027578067ffffffffffffffff811115610eff57610eff612737565b604051908082528060200260200182016040528015610f5157816020015b604080516080810182526000808252602080830182905292820181905260608201528252600019909201910181610f1d5790505b506001600160a01b03808616600090815260066020908152604080832093881683529290529081209196505b82811015611024576000610f99610f9486846117f3565b611c01565b6040805160808101825261ffff831680825260008181526020888152848220546001600160a01b03620100008204168286015260ff600160b01b8204811615159686019690965292909152879052600160b81b9004909116151560608201528951919250908990849081106110105761101061274d565b602090810291909101015250600101610f7d565b50505b5050505092915050565b6000546001600160a01b0316331461105c57604051639f216c1360e01b815260040160405180910390fd5b6001546001600160a01b03166110855760405163ecfad6bf60e01b815260040160405180910390fd5b61108f6000611c2b565b565b6000546001600160a01b031633146110bc57604051639f216c1360e01b815260040160405180910390fd5b6000806110c98686611a99565b6001600160a01b0380831660009081526006602090815260408083208486168452825280832061ffff808c1685529083529281902081516080810183529054938416815262010000840490941691840182905260ff600160b01b84048116151591850191909152600160b81b90920490911615156060830152929450909250906111835760405163102a919160e21b81526001600160a01b0380891660048301528716602482015261ffff86166044820152606401610521565b8315158160600151151514156111ab57604051626ee66560e11b815260040160405180910390fd5b6001600160a01b0380841660009081526006602090815260408083208685168452825280832061ffff8a1684528252918290208054881515600160b81b0260ff60b81b1990911617905583015190519116907f44cf35361c9ff3c8c1397ec6410d5495cc481feaef35c9af11da1a637107de4f9061122e90871515815260200190565b60405180910390a250505050505050565b60408051608081018252600080825260208201819052918101829052606081019190915261126e848484611806565b949350505050565b6000546001600160a01b031633146112a157604051639f216c1360e01b815260040160405180910390fd5b61108f6000611c75565b6000600582815481106112c0576112c061274d565b6000918252602090912001546001600160a01b031692915050565b6000610925600a611bf7565b6000808080808080806112fb60078a611a0f565b61131b57604051637d9160bf60e11b8152600481018a9052602401610521565b600061132860078b611a1b565b905061133381611b7d565b61ffff16985061134281611b89565b61ffff16975061135181611b99565b61ffff16965061136081611ba9565b61ffff16955061136f81611bb9565b62ffffff16945061137f81611bca565b61ffff16935061138e81611bda565b62ffffff16925060ff81901c915050919395975091939597565b6000546001600160a01b031633146113d357604051639f216c1360e01b815260040160405180910390fd5b306001600160a01b0316816001600160a01b03166388cc58e46040518163ffffffff1660e01b8152600401602060405180830381865afa15801561141b573d6000803e3d6000fd5b505050506040513d601f19601f8201168201806040525081019061143f9190612763565b6001600160a01b03161461147157604051630a3e70af60e11b81526001600160a01b0382166004820152602401610521565b6004546001600160a01b039081169082168114156114ad57604051630ded3b9560e31b81526001600160a01b0383166004820152602401610521565b600480546001600160a01b0319166001600160a01b0384811691821790925560408051928416835260208301919091527f900d0e3d359f50e4f923ecdc06b401e07dbb9f485e17b07bcfc91a13000b277e91015b60405180910390a15050565b6000546001600160a01b0316331461153857604051639f216c1360e01b815260040160405180910390fd5b6001600160a01b03811661155f576040516391f3851560e01b815260040160405180910390fd5b6001546001600160a01b0316156115895760405163716b1fbf60e01b815260040160405180910390fd5b61159281611c2b565b50565b6000546001600160a01b031633146115c057604051639f216c1360e01b815260040160405180910390fd5b6115cb600a82611ccf565b6115f357604051638e888ef360e01b81526001600160a01b0382166004820152602401610521565b6040516001600160a01b038216907f0b767739217755d8af5a2ba75b181a19fa1750f8bb701f09311cb19a90140cb390600090a250565b6000546001600160a01b0316331461165557604051639f216c1360e01b815260040160405180910390fd5b611664600761ffff8316611ce4565b61168757604051637d9160bf60e11b815261ffff82166004820152602401610521565b60405161ffff8216907fdd86b848bb56ff540caa68683fa467d0e7eb5f8b2d44e4ee435742eeeae9be1390600090a250565b6000546001600160a01b031633146116e457604051639f216c1360e01b815260040160405180910390fd5b61159281611cf0565b6000546001600160a01b0316331461171857604051639f216c1360e01b815260040160405180910390fd5b6003548181141561173f57604051631baa31e960e21b815260048101839052602401610521565b67016345785d8a000082111561177957604051635e8988c160e01b81526004810183905267016345785d8a00006024820152604401610521565b600382905560408051828152602081018490527f5c34e91c94c78b662a45d0bd4a25a4e32c584c54a45a76e4a4d43be27ba40e509101611501565b6001546001600160a01b0316331415806117cc575033155b156117ea57604051633982680960e11b815260040160405180910390fd5b61108f33611c75565b60006117ff8383611daf565b9392505050565b6040805160808101825260008082526020820181905291810182905260608101919091526118348484611a99565b6001600160a01b03918216600090815260066020908152604080832093851683529281528282209582529485528190208151608081018352905461ffff811682526201000081049093169481019490945260ff600160b01b83048116151591850191909152600160b81b90910416151560608301525092915050565b6001600160a01b038116600090815260018301602052604081205415156117ff565b60008561ffff168761ffff1611806118ef5750610fff8661ffff16115b806118ff57506127108561ffff16115b8061190f57506109c48361ffff16115b806119215750620fffff8262ffffff16115b1561193f57604051631c07203f60e01b815260040160405180910390fd5b5060109590951b630fff00001661ffff9690961695909517601c9390931b64fff00000001692909217663fff000000000060289290921b919091161760369190911b693fffffc000000000000016176b0fffc0000000000000000000604e9390931b92909216919091176dfffff00000000000000000000000605c9290921b91909116176dffffffffffffffffffffffffffff19919091161790565b600061126e84846119ed5760006119f0565b60015b600180861b19929092169116841b1790565b600061126e848484611dd9565b60006117ff8383611df6565b60006117ff8383611e02565b60006117ff836001600160a01b038416611e72565b606060006117ff83611ec1565b600060ff82901c610499565b600061271071ffff00000000000000000000000000000000608084901b1604600160801b0162ffffff8416627fffff1901611a908282611ecc565b95945050505050565b600080826001600160a01b0316846001600160a01b03161115611aba579192915b509192909150565b600060408303516020840351845180602087010180516002830161ffca811115611af45763c8c781396000526004601cfd5b6c5af43d3d93803e603357fd5bf3895289600d8a03527d6100003d81600a3d39f3363d3d373d3d3d3d610000806035363936013d738160481b176035820160d81b1760218a03528060f01b835287603f8201601f8b036000f596505085611b635763301164256000526004601cfd5b90528552601f19850152603f199093019290925250919050565b600061ffff8216610499565b60006104998260101c610fff1690565b600061049982601c1c610fff1690565b60006104998260281c613fff1690565b60006104998260361c62ffffff1690565b600061049982604e1c613fff1690565b600061049982605c1c620fffff1690565b60006117ff8383611e72565b6000610499825490565b8061ffff81168114611c26576040516364ae406d60e01b815260040160405180910390fd5b919050565b600180546001600160a01b0319166001600160a01b0383169081179091556040517f68f49b346b94582a8b5f9d10e3fe3365318fe8f191ff8dce7c59c6cad06b02f590600090a250565b600080546001600160a01b038381166001600160a01b031980841682178555600180549091169055604051919092169283917f8be0079c531659141344cd1fd0a4f28419497f9722a3daafe3b4186f6b6457e09190a35050565b60006117ff836001600160a01b03841661212e565b60006117ff8383612221565b6001600160a01b038116611d1757604051632573cfb960e21b815260040160405180910390fd5b6002546001600160a01b03908116908216811415611d5757600254604051634fcea97160e01b81526001600160a01b039091166004820152602401610521565b600280546001600160a01b0319166001600160a01b0384811691821790925560408051928416835260208301919091527f15d80a013f22151bc7246e3bc132e12828cde19de98870475e3fa708401527219101611501565b6000826000018281548110611dc657611dc661274d565b9060005260206000200154905092915050565b6000828152600284016020526040812082905561126e8484611beb565b60006117ff838361223e565b600081815260028301602052604081205480151580611e265750611e268484611df6565b6117ff5760405162461bcd60e51b815260206004820152601e60248201527f456e756d657261626c654d61703a206e6f6e6578697374656e74206b657900006044820152606401610521565b6000818152600183016020526040812054611eb957508154600181810184556000848152602080822090930184905584548482528286019093526040902091909155610499565b506000610499565b606061049982612256565b6000808083611ee45750600160801b91506104999050565b50826000811215611ef6579015906000035b621000008110156120ef57600160801b9250846fffffffffffffffffffffffffffffffff811115611f2957911591600019045b6001821615611f3a5792830260801c925b800260801c6002821615611f505792830260801c925b800260801c6004821615611f665792830260801c925b800260801c6008821615611f7c5792830260801c925b800260801c6010821615611f925792830260801c925b800260801c6020821615611fa85792830260801c925b800260801c6040821615611fbe5792830260801c925b8002608090811c90821615611fd55792830260801c925b800260801c610100821615611fec5792830260801c925b800260801c6102008216156120035792830260801c925b800260801c61040082161561201a5792830260801c925b800260801c6108008216156120315792830260801c925b800260801c6110008216156120485792830260801c925b800260801c61200082161561205f5792830260801c925b800260801c6140008216156120765792830260801c925b800260801c61800082161561208d5792830260801c925b800260801c620100008216156120a55792830260801c925b800260801c620200008216156120bd5792830260801c925b800260801c620400008216156120d55792830260801c925b800260801c620800008216156120ed5792830260801c925b505b8261211757604051631dba598d60e11b81526004810186905260248101859052604401610521565b816121225782611a90565b611a9083600019612780565b60008181526001830160205260408120548015612217576000612152600183612712565b855490915060009061216690600190612712565b90508181146121cb5760008660000182815481106121865761218661274d565b90600052602060002001549050808760000184815481106121a9576121a961274d565b6000918252602080832090910192909255918252600188019052604090208390555b85548690806121dc576121dc6127a2565b600190038181906000526020600020016000905590558560010160008681526020019081526020016000206000905560019350505050610499565b6000915050610499565b600081815260028301602052604081208190556117ff8383612263565b600081815260018301602052604081205415156117ff565b606060006117ff8361226f565b60006117ff838361212e565b6060816000018054806020026020016040519081016040528092919081815260200182805480156122bf57602002820191906000526020600020905b8154815260200190600101908083116122ab575b50505050509050919050565b6000602082840312156122dd57600080fd5b5035919050565b6001600160a01b038116811461159257600080fd5b803561ffff81168114611c2657600080fd5b803562ffffff81168114611c2657600080fd5b6000806000806000806000806000806101408b8d03121561233e57600080fd5b8a35612349816122e4565b995060208b0135612359816122e4565b985061236760408c016122f9565b975061237560608c016122f9565b965061238360808c016122f9565b955061239160a08c016122f9565b945061239f60c08c016122f9565b93506123ad60e08c0161230b565b92506123bc6101008c016122f9565b91506123cb6101208c0161230b565b90509295989b9194979a5092959850565b6000602082840312156123ee57600080fd5b81356117ff816122e4565b80358015158114611c2657600080fd5b60008060008060008060008060006101208a8c03121561242857600080fd5b6124318a6122f9565b985061243f60208b016122f9565b975061244d60408b016122f9565b965061245b60608b016122f9565b955061246960808b016122f9565b945061247760a08b0161230b565b935061248560c08b016122f9565b925061249360e08b0161230b565b91506124a26101008b016123f9565b90509295985092959850929598565b600080604083850312156124c457600080fd5b6124cd836122f9565b91506124db602084016123f9565b90509250929050565b6020808252825182820181905260009190848201906040850190845b8181101561251c57835183529284019291840191600101612500565b50909695505050505050565b6000806000806080858703121561253e57600080fd5b8435612549816122e4565b93506020850135612559816122e4565b92506125676040860161230b565b9150612575606086016122f9565b905092959194509250565b6000806040838503121561259357600080fd5b823561259e816122e4565b915060208301356125ae816122e4565b809150509250929050565b6020808252825182820181905260009190848201906040850190845b8181101561251c5761261a83855161ffff81511682526001600160a01b0360208201511660208301526040810151151560408301526060810151151560608301525050565b92840192608092909201916001016125d5565b6000806000806080858703121561264357600080fd5b843561264e816122e4565b9350602085013561265e816122e4565b925061266c604086016122f9565b9150612575606086016123f9565b60008060006060848603121561268f57600080fd5b833561269a816122e4565b925060208401356126aa816122e4565b929592945050506040919091013590565b815161ffff1681526020808301516001600160a01b03169082015260408083015115159082015260608083015115159082015260808101610499565b60006020828403121561270957600080fd5b6117ff826122f9565b60008282101561273257634e487b7160e01b600052601160045260246000fd5b500390565b634e487b7160e01b600052604160045260246000fd5b634e487b7160e01b600052603260045260246000fd5b60006020828403121561277557600080fd5b81516117ff816122e4565b60008261279d57634e487b7160e01b600052601260045260246000fd5b500490565b634e487b7160e01b600052603160045260246000fdfea264697066735822122018a61f09d61f99d22638a4c28a1ef0fb435df0f5f7b1d3dad5c274e8682a9e0664736f6c634300080a0033",
    "linkReferences": {}
  },
  "methodIdentifiers": {
    "addQuoteAsset(address)": "5a440923",
    "becomeOwner()": "f9dca989",
    "createLBPair(address,address,uint24,uint16)": "659ac74b",
    "forceDecay(address)": "3c78a941",
    "getAllBinSteps()": "5b35875c",
    "getAllLBPairs(address,address)": "6622e0d7",
    "getFeeRecipient()": "4ccb20c0",
    "getFlashLoanFee()": "fd90c2be",
    "getLBPairAtIndex(uint256)": "7daf5d66",
    "getLBPairImplementation()": "af371065",
    "getLBPairInformation(address,address,uint256)": "704037bd",
    "getMaxFlashLoanFee()": "8ce9aa1c",
    "getMinBinStep()": "701ab8c1",
    "getNumberOfLBPairs()": "4e937c3a",
    "getNumberOfQuoteAssets()": "80c5061e",
    "getPreset(uint256)": "aabc4b3c",
    "getQuoteAssetAtIndex(uint256)": "0752092b",
    "isQuoteAsset(address)": "27721842",
    "owner()": "8da5cb5b",
    "pendingOwner()": "e30c3978",
    "removePreset(uint16)": "e203a31f",
    "removeQuoteAsset(address)": "ddbfd941",
    "renounceOwnership()": "715018a6",
    "revokePendingOwner()": "67ab8a4e",
    "setFeeRecipient(address)": "e74b981b",
    "setFeesParametersOnPair(address,address,uint16,uint16,uint16,uint16,uint16,uint24,uint16,uint24)": "093ff769",
    "setFlashLoanFee(uint256)": "e92d0d5d",
    "setLBPairIgnored(address,address,uint16,bool)": "69d56ea3",
    "setLBPairImplementation(address)": "b0384781",
    "setPendingOwner(address)": "c42069ec",
    "setPreset(uint16,uint16,uint16,uint16,uint16,uint24,uint16,uint24,bool)": "379ee803",
    "setPresetOpenState(uint16,bool)": "4cd161d3"
  },
  "id": 27
}