{
  "abi": [
    {
      "inputs": [
        {
          "internalType": "contract ILBFactory",
          "name": "factory_",
          "type": "address"
        }
      ],
      "stateMutability": "nonpayable",
      "type": "constructor"
    },
    {
      "inputs": [],
      "name": "AddressHelper__CallFailed",
      "type": "error"
    },
    {
      "inputs": [],
      "name": "AddressHelper__NonContract",
      "type": "error"
    },
    {
      "inputs": [
        {
          "internalType": "uint24",
          "name": "id",
          "type": "uint24"
        }
      ],
      "name": "BinHelper__CompositionFactorFlawed",
      "type": "error"
    },
    {
      "inputs": [],
      "name": "BinHelper__LiquidityOverflow",
      "type": "error"
    },
    {
      "inputs": [],
      "name": "FeeHelper__FeeOverflow",
      "type": "error"
    },
    {
      "inputs": [],
      "name": "LBPair__AddressZero",
      "type": "error"
    },
    {
      "inputs": [],
      "name": "LBPair__AlreadyInitialized",
      "type": "error"
    },
    {
      "inputs": [],
      "name": "LBPair__EmptyMarketConfigs",
      "type": "error"
    },
    {
      "inputs": [],
      "name": "LBPair__FlashLoanCallbackFailed",
      "type": "error"
    },
    {
      "inputs": [],
      "name": "LBPair__FlashLoanInsufficientAmount",
      "type": "error"
    },
    {
      "inputs": [],
      "name": "LBPair__InsufficientAmountIn",
      "type": "error"
    },
    {
      "inputs": [],
      "name": "LBPair__InsufficientAmountOut",
      "type": "error"
    },
    {
      "inputs": [],
      "name": "LBPair__InvalidInput",
      "type": "error"
    },
    {
      "inputs": [],
      "name": "LBPair__InvalidStaticFeeParameters",
      "type": "error"
    },
    {
      "inputs": [],
      "name": "LBPair__MaxTotalFeeExceeded",
      "type": "error"
    },
    {
      "inputs": [],
      "name": "LBPair__OnlyFactory",
      "type": "error"
    },
    {
      "inputs": [],
      "name": "LBPair__OnlyProtocolFeeRecipient",
      "type": "error"
    },
    {
      "inputs": [],
      "name": "LBPair__OutOfLiquidity",
      "type": "error"
    },
    {
      "inputs": [],
      "name": "LBPair__TokenNotSupported",
      "type": "error"
    },
    {
      "inputs": [
        {
          "internalType": "uint24",
          "name": "id",
          "type": "uint24"
        }
      ],
      "name": "LBPair__ZeroAmount",
      "type": "error"
    },
    {
      "inputs": [
        {
          "internalType": "uint24",
          "name": "id",
          "type": "uint24"
        }
      ],
      "name": "LBPair__ZeroAmountsOut",
      "type": "error"
    },
    {
      "inputs": [],
      "name": "LBPair__ZeroBorrowAmount",
      "type": "error"
    },
    {
      "inputs": [
        {
          "internalType": "uint24",
          "name": "id",
          "type": "uint24"
        }
      ],
      "name": "LBPair__ZeroShares",
      "type": "error"
    },
    {
      "inputs": [],
      "name": "LBToken__AddressThisOrZero",
      "type": "error"
    },
    {
      "inputs": [
        {
          "internalType": "address",
          "name": "from",
          "type": "address"
        },
        {
          "internalType": "uint256",
          "name": "id",
          "type": "uint256"
        },
        {
          "internalType": "uint256",
          "name": "amount",
          "type": "uint256"
        }
      ],
      "name": "LBToken__BurnExceedsBalance",
      "type": "error"
    },
    {
      "inputs": [],
      "name": "LBToken__InvalidLength",
      "type": "error"
    },
    {
      "inputs": [
        {
          "internalType": "address",
          "name": "owner",
          "type": "address"
        }
      ],
      "name": "LBToken__SelfApproval",
      "type": "error"
    },
    {
      "inputs": [
        {
          "internalType": "address",
          "name": "from",
          "type": "address"
        },
        {
          "internalType": "address",
          "name": "spender",
          "type": "address"
        }
      ],
      "name": "LBToken__SpenderNotApproved",
      "type": "error"
    },
    {
      "inputs": [
        {
          "internalType": "address",
          "name": "from",
          "type": "address"
        },
        {
          "internalType": "uint256",
          "name": "id",
          "type": "uint256"
        },
        {
          "internalType": "uint256",
          "name": "amount",
          "type": "uint256"
        }
      ],
      "name": "LBToken__TransferExceedsBalance",
      "type": "error"
    },
    {
      "inputs": [],
      "name": "LiquidityConfigurations__InvalidConfig",
      "type": "error"
    },
    {
      "inputs": [],
      "name": "OracleHelper__InvalidOracleId",
      "type": "error"
    },
    {
      "inputs": [],
      "name": "OracleHelper__LookUpTimestampTooOld",
      "type": "error"
    },
    {
      "inputs": [],
      "name": "OracleHelper__NewLengthTooSmall",
      "type": "error"
    },
    {
      "inputs": [],
      "name": "PackedUint128Math__AddOverflow",
      "type": "error"
    },
    {
      "inputs": [],
      "name": "PackedUint128Math__MultiplierTooLarge",
      "type": "error"
    },
    {
      "inputs": [],
      "name": "PackedUint128Math__SubUnderflow",
      "type": "error"
    },
    {
      "inputs": [],
      "name": "PairParametersHelper__InvalidParameter",
      "type": "error"
    },
    {
      "inputs": [],
      "name": "ReentrancyGuard__ReentrantCall",
      "type": "error"
    },
    {
      "inputs": [],
      "name": "SafeCast__Exceeds128Bits",
      "type": "error"
    },
    {
      "inputs": [],
      "name": "SafeCast__Exceeds24Bits",
      "type": "error"
    },
    {
      "inputs": [],
      "name": "SafeCast__Exceeds40Bits",
      "type": "error"
    },
    {
      "inputs": [],
      "name": "TokenHelper__TransferFailed",
      "type": "error"
    },
    {
      "inputs": [],
      "name": "Uint128x128Math__LogUnderflow",
      "type": "error"
    },
    {
      "inputs": [
        {
          "internalType": "uint256",
          "name": "x",
          "type": "uint256"
        },
        {
          "internalType": "int256",
          "name": "y",
          "type": "int256"
        }
      ],
      "name": "Uint128x128Math__PowUnderflow",
      "type": "error"
    },
    {
      "inputs": [],
      "name": "Uint256x256Math__MulDivOverflow",
      "type": "error"
    },
    {
      "inputs": [],
      "name": "Uint256x256Math__MulShiftOverflow",
      "type": "error"
    },
    {
      "anonymous": false,
      "inputs": [
        {
          "indexed": true,
          "internalType": "address",
          "name": "account",
          "type": "address"
        },
        {
          "indexed": true,
          "internalType": "address",
          "name": "sender",
          "type": "address"
        },
        {
          "indexed": false,
          "internalType": "bool",
          "name": "approved",
          "type": "bool"
        }
      ],
      "name": "ApprovalForAll",
      "type": "event"
    },
    {
      "anonymous": false,
      "inputs": [
        {
          "indexed": true,
          "internalType": "address",
          "name": "feeRecipient",
          "type": "address"
        },
        {
          "indexed": false,
          "internalType": "bytes32",
          "name": "protocolFees",
          "type": "bytes32"
        }
      ],
      "name": "CollectedProtocolFees",
      "type": "event"
    },
    {
      "anonymous": false,
      "inputs": [
        {
          "indexed": true,
          "internalType": "address",
          "name": "sender",
          "type": "address"
        },
        {
          "indexed": false,
          "internalType": "uint24",
          "name": "id",
          "type": "uint24"
        },
        {
          "indexed": false,
          "internalType": "bytes32",
          "name": "totalFees",
          "type": "bytes32"
        },
        {
          "indexed": false,
          "internalType": "bytes32",
          "name": "protocolFees",
          "type": "bytes32"
        }
      ],
      "name": "CompositionFees",
      "type": "event"
    },
    {
      "anonymous": false,
      "inputs": [
        {
          "indexed": true,
          "internalType": "address",
          "name": "sender",
          "type": "address"
        },
        {
          "indexed": true,
          "internalType": "address",
          "name": "to",
          "type": "address"
        },
        {
          "indexed": false,
          "internalType": "uint256[]",
          "name": "ids",
          "type": "uint256[]"
        },
        {
          "indexed": false,
          "internalType": "bytes32[]",
          "name": "amounts",
          "type": "bytes32[]"
        }
      ],
      "name": "DepositedToBins",
      "type": "event"
    },
    {
      "anonymous": false,
      "inputs": [
        {
          "indexed": true,
          "internalType": "address",
          "name": "sender",
          "type": "address"
        },
        {
          "indexed": true,
          "internalType": "contract ILBFlashLoanCallback",
          "name": "receiver",
          "type": "address"
        },
        {
          "indexed": false,
          "internalType": "uint24",
          "name": "activeId",
          "type": "uint24"
        },
        {
          "indexed": false,
          "internalType": "bytes32",
          "name": "amounts",
          "type": "bytes32"
        },
        {
          "indexed": false,
          "internalType": "bytes32",
          "name": "totalFees",
          "type": "bytes32"
        },
        {
          "indexed": false,
          "internalType": "bytes32",
          "name": "protocolFees",
          "type": "bytes32"
        }
      ],
      "name": "FlashLoan",
      "type": "event"
    },
    {
      "anonymous": false,
      "inputs": [
        {
          "indexed": true,
          "internalType": "address",
          "name": "sender",
          "type": "address"
        },
        {
          "indexed": false,
          "internalType": "uint24",
          "name": "idReference",
          "type": "uint24"
        },
        {
          "indexed": false,
          "internalType": "uint24",
          "name": "volatilityReference",
          "type": "uint24"
        }
      ],
      "name": "ForcedDecay",
      "type": "event"
    },
    {
      "anonymous": false,
      "inputs": [
        {
          "indexed": true,
          "internalType": "address",
          "name": "sender",
          "type": "address"
        },
        {
          "indexed": false,
          "internalType": "uint16",
          "name": "oracleLength",
          "type": "uint16"
        }
      ],
      "name": "OracleLengthIncreased",
      "type": "event"
    },
    {
      "anonymous": false,
      "inputs": [
        {
          "indexed": true,
          "internalType": "address",
          "name": "sender",
          "type": "address"
        },
        {
          "indexed": false,
          "internalType": "uint16",
          "name": "baseFactor",
          "type": "uint16"
        },
        {
          "indexed": false,
          "internalType": "uint16",
          "name": "filterPeriod",
          "type": "uint16"
        },
        {
          "indexed": false,
          "internalType": "uint16",
          "name": "decayPeriod",
          "type": "uint16"
        },
        {
          "indexed": false,
          "internalType": "uint16",
          "name": "reductionFactor",
          "type": "uint16"
        },
        {
          "indexed": false,
          "internalType": "uint24",
          "name": "variableFeeControl",
          "type": "uint24"
        },
        {
          "indexed": false,
          "internalType": "uint16",
          "name": "protocolShare",
          "type": "uint16"
        },
        {
          "indexed": false,
          "internalType": "uint24",
          "name": "maxVolatilityAccumulator",
          "type": "uint24"
        }
      ],
      "name": "StaticFeeParametersSet",
      "type": "event"
    },
    {
      "anonymous": false,
      "inputs": [
        {
          "indexed": true,
          "internalType": "address",
          "name": "sender",
          "type": "address"
        },
        {
          "indexed": true,
          "internalType": "address",
          "name": "to",
          "type": "address"
        },
        {
          "indexed": false,
          "internalType": "uint24",
          "name": "id",
          "type": "uint24"
        },
        {
          "indexed": false,
          "internalType": "bytes32",
          "name": "amountsIn",
          "type": "bytes32"
        },
        {
          "indexed": false,
          "internalType": "bytes32",
          "name": "amountsOut",
          "type": "bytes32"
        },
        {
          "indexed": false,
          "internalType": "uint24",
          "name": "volatilityAccumulator",
          "type": "uint24"
        },
        {
          "indexed": false,
          "internalType": "bytes32",
          "name": "totalFees",
          "type": "bytes32"
        },
        {
          "indexed": false,
          "internalType": "bytes32",
          "name": "protocolFees",
          "type": "bytes32"
        }
      ],
      "name": "Swap",
      "type": "event"
    },
    {
      "anonymous": false,
      "inputs": [
        {
          "indexed": true,
          "internalType": "address",
          "name": "sender",
          "type": "address"
        },
        {
          "indexed": true,
          "internalType": "address",
          "name": "from",
          "type": "address"
        },
        {
          "indexed": true,
          "internalType": "address",
          "name": "to",
          "type": "address"
        },
        {
          "indexed": false,
          "internalType": "uint256[]",
          "name": "ids",
          "type": "uint256[]"
        },
        {
          "indexed": false,
          "internalType": "uint256[]",
          "name": "amounts",
          "type": "uint256[]"
        }
      ],
      "name": "TransferBatch",
      "type": "event"
    },
    {
      "anonymous": false,
      "inputs": [
        {
          "indexed": true,
          "internalType": "address",
          "name": "sender",
          "type": "address"
        },
        {
          "indexed": true,
          "internalType": "address",
          "name": "to",
          "type": "address"
        },
        {
          "indexed": false,
          "internalType": "uint256[]",
          "name": "ids",
          "type": "uint256[]"
        },
        {
          "indexed": false,
          "internalType": "bytes32[]",
          "name": "amounts",
          "type": "bytes32[]"
        }
      ],
      "name": "WithdrawnFromBins",
      "type": "event"
    },
    {
      "inputs": [
        {
          "internalType": "address",
          "name": "spender",
          "type": "address"
        },
        {
          "internalType": "bool",
          "name": "approved",
          "type": "bool"
        }
      ],
      "name": "approveForAll",
      "outputs": [],
      "stateMutability": "nonpayable",
      "type": "function"
    },
    {
      "inputs": [
        {
          "internalType": "address",
          "name": "account",
          "type": "address"
        },
        {
          "internalType": "uint256",
          "name": "id",
          "type": "uint256"
        }
      ],
      "name": "balanceOf",
      "outputs": [
        {
          "internalType": "uint256",
          "name": "",
          "type": "uint256"
        }
      ],
      "stateMutability": "view",
      "type": "function"
    },
    {
      "inputs": [
        {
          "internalType": "address[]",
          "name": "accounts",
          "type": "address[]"
        },
        {
          "internalType": "uint256[]",
          "name": "ids",
          "type": "uint256[]"
        }
      ],
      "name": "balanceOfBatch",
      "outputs": [
        {
          "internalType": "uint256[]",
          "name": "batchBalances",
          "type": "uint256[]"
        }
      ],
      "stateMutability": "view",
      "type": "function"
    },
    {
      "inputs": [
        {
          "internalType": "address",
          "name": "from",
          "type": "address"
        },
        {
          "internalType": "address",
          "name": "to",
          "type": "address"
        },
        {
          "internalType": "uint256[]",
          "name": "ids",
          "type": "uint256[]"
        },
        {
          "internalType": "uint256[]",
          "name": "amounts",
          "type": "uint256[]"
        }
      ],
      "name": "batchTransferFrom",
      "outputs": [],
      "stateMutability": "nonpayable",
      "type": "function"
    },
    {
      "inputs": [
        {
          "internalType": "address",
          "name": "from",
          "type": "address"
        },
        {
          "internalType": "address",
          "name": "to",
          "type": "address"
        },
        {
          "internalType": "uint256[]",
          "name": "ids",
          "type": "uint256[]"
        },
        {
          "internalType": "uint256[]",
          "name": "amountsToBurn",
          "type": "uint256[]"
        }
      ],
      "name": "burn",
      "outputs": [
        {
          "internalType": "bytes32[]",
          "name": "amounts",
          "type": "bytes32[]"
        }
      ],
      "stateMutability": "nonpayable",
      "type": "function"
    },
    {
      "inputs": [],
      "name": "collectProtocolFees",
      "outputs": [
        {
          "internalType": "bytes32",
          "name": "collectedProtocolFees",
          "type": "bytes32"
        }
      ],
      "stateMutability": "nonpayable",
      "type": "function"
    },
    {
      "inputs": [
        {
          "internalType": "contract ILBFlashLoanCallback",
          "name": "receiver",
          "type": "address"
        },
        {
          "internalType": "bytes32",
          "name": "amounts",
          "type": "bytes32"
        },
        {
          "internalType": "bytes",
          "name": "data",
          "type": "bytes"
        }
      ],
      "name": "flashLoan",
      "outputs": [],
      "stateMutability": "nonpayable",
      "type": "function"
    },
    {
      "inputs": [],
      "name": "forceDecay",
      "outputs": [],
      "stateMutability": "nonpayable",
      "type": "function"
    },
    {
      "inputs": [],
      "name": "getActiveId",
      "outputs": [
        {
          "internalType": "uint24",
          "name": "activeId",
          "type": "uint24"
        }
      ],
      "stateMutability": "view",
      "type": "function"
    },
    {
      "inputs": [
        {
          "internalType": "uint24",
          "name": "id",
          "type": "uint24"
        }
      ],
      "name": "getBin",
      "outputs": [
        {
          "internalType": "uint128",
          "name": "binReserveX",
          "type": "uint128"
        },
        {
          "internalType": "uint128",
          "name": "binReserveY",
          "type": "uint128"
        }
      ],
      "stateMutability": "view",
      "type": "function"
    },
    {
      "inputs": [],
      "name": "getBinStep",
      "outputs": [
        {
          "internalType": "uint16",
          "name": "",
          "type": "uint16"
        }
      ],
      "stateMutability": "pure",
      "type": "function"
    },
    {
      "inputs": [],
      "name": "getFactory",
      "outputs": [
        {
          "internalType": "contract ILBFactory",
          "name": "factory",
          "type": "address"
        }
      ],
      "stateMutability": "view",
      "type": "function"
    },
    {
      "inputs": [
        {
          "internalType": "uint256",
          "name": "price",
          "type": "uint256"
        }
      ],
      "name": "getIdFromPrice",
      "outputs": [
        {
          "internalType": "uint24",
          "name": "id",
          "type": "uint24"
        }
      ],
      "stateMutability": "pure",
      "type": "function"
    },
    {
      "inputs": [
        {
          "internalType": "bool",
          "name": "swapForY",
          "type": "bool"
        },
        {
          "internalType": "uint24",
          "name": "id",
          "type": "uint24"
        }
      ],
      "name": "getNextNonEmptyBin",
      "outputs": [
        {
          "internalType": "uint24",
          "name": "nextId",
          "type": "uint24"
        }
      ],
      "stateMutability": "view",
      "type": "function"
    },
    {
      "inputs": [],
      "name": "getOracleParameters",
      "outputs": [
        {
          "internalType": "uint8",
          "name": "sampleLifetime",
          "type": "uint8"
        },
        {
          "internalType": "uint16",
          "name": "size",
          "type": "uint16"
        },
        {
          "internalType": "uint16",
          "name": "activeSize",
          "type": "uint16"
        },
        {
          "internalType": "uint40",
          "name": "lastUpdated",
          "type": "uint40"
        },
        {
          "internalType": "uint40",
          "name": "firstTimestamp",
          "type": "uint40"
        }
      ],
      "stateMutability": "view",
      "type": "function"
    },
    {
      "inputs": [
        {
          "internalType": "uint40",
          "name": "lookupTimestamp",
          "type": "uint40"
        }
      ],
      "name": "getOracleSampleAt",
      "outputs": [
        {
          "internalType": "uint64",
          "name": "cumulativeId",
          "type": "uint64"
        },
        {
          "internalType": "uint64",
          "name": "cumulativeVolatility",
          "type": "uint64"
        },
        {
          "internalType": "uint64",
          "name": "cumulativeBinCrossed",
          "type": "uint64"
        }
      ],
      "stateMutability": "view",
      "type": "function"
    },
    {
      "inputs": [
        {
          "internalType": "uint24",
          "name": "id",
          "type": "uint24"
        }
      ],
      "name": "getPriceFromId",
      "outputs": [
        {
          "internalType": "uint256",
          "name": "price",
          "type": "uint256"
        }
      ],
      "stateMutability": "pure",
      "type": "function"
    },
    {
      "inputs": [],
      "name": "getProtocolFees",
      "outputs": [
        {
          "internalType": "uint128",
          "name": "protocolFeeX",
          "type": "uint128"
        },
        {
          "internalType": "uint128",
          "name": "protocolFeeY",
          "type": "uint128"
        }
      ],
      "stateMutability": "view",
      "type": "function"
    },
    {
      "inputs": [],
      "name": "getReserves",
      "outputs": [
        {
          "internalType": "uint128",
          "name": "reserveX",
          "type": "uint128"
        },
        {
          "internalType": "uint128",
          "name": "reserveY",
          "type": "uint128"
        }
      ],
      "stateMutability": "view",
      "type": "function"
    },
    {
      "inputs": [],
      "name": "getStaticFeeParameters",
      "outputs": [
        {
          "internalType": "uint16",
          "name": "baseFactor",
          "type": "uint16"
        },
        {
          "internalType": "uint16",
          "name": "filterPeriod",
          "type": "uint16"
        },
        {
          "internalType": "uint16",
          "name": "decayPeriod",
          "type": "uint16"
        },
        {
          "internalType": "uint16",
          "name": "reductionFactor",
          "type": "uint16"
        },
        {
          "internalType": "uint24",
          "name": "variableFeeControl",
          "type": "uint24"
        },
        {
          "internalType": "uint16",
          "name": "protocolShare",
          "type": "uint16"
        },
        {
          "internalType": "uint24",
          "name": "maxVolatilityAccumulator",
          "type": "uint24"
        }
      ],
      "stateMutability": "view",
      "type": "function"
    },
    {
      "inputs": [
        {
          "internalType": "uint128",
          "name": "amountOut",
          "type": "uint128"
        },
        {
          "internalType": "bool",
          "name": "swapForY",
          "type": "bool"
        }
      ],
      "name": "getSwapIn",
      "outputs": [
        {
          "internalType": "uint128",
          "name": "amountIn",
          "type": "uint128"
        },
        {
          "internalType": "uint128",
          "name": "amountOutLeft",
          "type": "uint128"
        },
        {
          "internalType": "uint128",
          "name": "fee",
          "type": "uint128"
        }
      ],
      "stateMutability": "view",
      "type": "function"
    },
    {
      "inputs": [
        {
          "internalType": "uint128",
          "name": "amountIn",
          "type": "uint128"
        },
        {
          "internalType": "bool",
          "name": "swapForY",
          "type": "bool"
        }
      ],
      "name": "getSwapOut",
      "outputs": [
        {
          "internalType": "uint128",
          "name": "amountInLeft",
          "type": "uint128"
        },
        {
          "internalType": "uint128",
          "name": "amountOut",
          "type": "uint128"
        },
        {
          "internalType": "uint128",
          "name": "fee",
          "type": "uint128"
        }
      ],
      "stateMutability": "view",
      "type": "function"
    },
    {
      "inputs": [],
      "name": "getTokenX",
      "outputs": [
        {
          "internalType": "contract IERC20",
          "name": "tokenX",
          "type": "address"
        }
      ],
      "stateMutability": "pure",
      "type": "function"
    },
    {
      "inputs": [],
      "name": "getTokenY",
      "outputs": [
        {
          "internalType": "contract IERC20",
          "name": "tokenY",
          "type": "address"
        }
      ],
      "stateMutability": "pure",
      "type": "function"
    },
    {
      "inputs": [],
      "name": "getVariableFeeParameters",
      "outputs": [
        {
          "internalType": "uint24",
          "name": "volatilityAccumulator",
          "type": "uint24"
        },
        {
          "internalType": "uint24",
          "name": "volatilityReference",
          "type": "uint24"
        },
        {
          "internalType": "uint24",
          "name": "idReference",
          "type": "uint24"
        },
        {
          "internalType": "uint40",
          "name": "timeOfLastUpdate",
          "type": "uint40"
        }
      ],
      "stateMutability": "view",
      "type": "function"
    },
    {
      "inputs": [
        {
          "internalType": "uint16",
          "name": "newLength",
          "type": "uint16"
        }
      ],
      "name": "increaseOracleLength",
      "outputs": [],
      "stateMutability": "nonpayable",
      "type": "function"
    },
    {
      "inputs": [
        {
          "internalType": "uint16",
          "name": "baseFactor",
          "type": "uint16"
        },
        {
          "internalType": "uint16",
          "name": "filterPeriod",
          "type": "uint16"
        },
        {
          "internalType": "uint16",
          "name": "decayPeriod",
          "type": "uint16"
        },
        {
          "internalType": "uint16",
          "name": "reductionFactor",
          "type": "uint16"
        },
        {
          "internalType": "uint24",
          "name": "variableFeeControl",
          "type": "uint24"
        },
        {
          "internalType": "uint16",
          "name": "protocolShare",
          "type": "uint16"
        },
        {
          "internalType": "uint24",
          "name": "maxVolatilityAccumulator",
          "type": "uint24"
        },
        {
          "internalType": "uint24",
          "name": "activeId",
          "type": "uint24"
        }
      ],
      "name": "initialize",
      "outputs": [],
      "stateMutability": "nonpayable",
      "type": "function"
    },
    {
      "inputs": [
        {
          "internalType": "address",
          "name": "owner",
          "type": "address"
        },
        {
          "internalType": "address",
          "name": "spender",
          "type": "address"
        }
      ],
      "name": "isApprovedForAll",
      "outputs": [
        {
          "internalType": "bool",
          "name": "",
          "type": "bool"
        }
      ],
      "stateMutability": "view",
      "type": "function"
    },
    {
      "inputs": [
        {
          "internalType": "address",
          "name": "to",
          "type": "address"
        },
        {
          "internalType": "bytes32[]",
          "name": "liquidityConfigs",
          "type": "bytes32[]"
        },
        {
          "internalType": "address",
          "name": "refundTo",
          "type": "address"
        }
      ],
      "name": "mint",
      "outputs": [
        {
          "internalType": "bytes32",
          "name": "amountsReceived",
          "type": "bytes32"
        },
        {
          "internalType": "bytes32",
          "name": "amountsLeft",
          "type": "bytes32"
        },
        {
          "internalType": "uint256[]",
          "name": "liquidityMinted",
          "type": "uint256[]"
        }
      ],
      "stateMutability": "nonpayable",
      "type": "function"
    },
    {
      "inputs": [],
      "name": "name",
      "outputs": [
        {
          "internalType": "string",
          "name": "",
          "type": "string"
        }
      ],
      "stateMutability": "view",
      "type": "function"
    },
    {
      "inputs": [
        {
          "internalType": "uint16",
          "name": "baseFactor",
          "type": "uint16"
        },
        {
          "internalType": "uint16",
          "name": "filterPeriod",
          "type": "uint16"
        },
        {
          "internalType": "uint16",
          "name": "decayPeriod",
          "type": "uint16"
        },
        {
          "internalType": "uint16",
          "name": "reductionFactor",
          "type": "uint16"
        },
        {
          "internalType": "uint24",
          "name": "variableFeeControl",
          "type": "uint24"
        },
        {
          "internalType": "uint16",
          "name": "protocolShare",
          "type": "uint16"
        },
        {
          "internalType": "uint24",
          "name": "maxVolatilityAccumulator",
          "type": "uint24"
        }
      ],
      "name": "setStaticFeeParameters",
      "outputs": [],
      "stateMutability": "nonpayable",
      "type": "function"
    },
    {
      "inputs": [
        {
          "internalType": "bool",
          "name": "swapForY",
          "type": "bool"
        },
        {
          "internalType": "address",
          "name": "to",
          "type": "address"
        }
      ],
      "name": "swap",
      "outputs": [
        {
          "internalType": "bytes32",
          "name": "amountsOut",
          "type": "bytes32"
        }
      ],
      "stateMutability": "nonpayable",
      "type": "function"
    },
    {
      "inputs": [],
      "name": "symbol",
      "outputs": [
        {
          "internalType": "string",
          "name": "",
          "type": "string"
        }
      ],
      "stateMutability": "view",
      "type": "function"
    },
    {
      "inputs": [
        {
          "internalType": "uint256",
          "name": "id",
          "type": "uint256"
        }
      ],
      "name": "totalSupply",
      "outputs": [
        {
          "internalType": "uint256",
          "name": "",
          "type": "uint256"
        }
      ],
      "stateMutability": "view",
      "type": "function"
    }
  ],
  "bytecode": {
    "object": "0x60a06040523480156200001157600080fd5b5060405162005a4038038062005a4083398101604081905262000034916200004b565b6001600160a01b031660805260016004556200007d565b6000602082840312156200005e57600080fd5b81516001600160a01b03811681146200007657600080fd5b9392505050565b608051615984620000bc6000396000818161047001528181610a4501528181610fc3015281816111e9015281816118d5015261356501526159846000f3fe608060405234801561001057600080fd5b50600436106102255760003560e01c80638d7024e51161012a578063d3b9fbe4116100bd578063e584b6541161008c578063e985e9c511610071578063e985e9c514610634578063ea3446bf14610657578063f5e293291461066a57600080fd5b8063e584b6541461060e578063e77366f81461062157600080fd5b8063d3b9fbe4146105de578063d8dfcea0146105e6578063da10610c146105ee578063dbe65edc1461060657600080fd5b8063abcd7830116100f9578063abcd78301461055b578063bd85b03914610598578063c7bd6586146105b8578063c9939f5e146105cb57600080fd5b80638d7024e5146104d257806395d89b411461050d578063a1af5b9a1461052c578063a41a01fb1461053457600080fd5b806347973bff116101bd578063551828941161018c5780637ca0de30116101715780637ca0de301461041c57806388cc58e41461046e5780638940a16a1461049457600080fd5b806355182894146103c45780636653851a1461040957600080fd5b806347973bff1461036b5780634c7cffbd1461037e5780634e1273f41461039157806353c059a0146103b157600080fd5b80630abe9688116101f95780630abe9688146102e357806317f11ecc1461031957806317fad7fc14610334578063383d15c51461034957600080fd5b8062fdd58e1461022a57806305e8746d1461025057806306fdde03146102795780630902f1ac146102bb575b600080fd5b61023d610238366004614e98565b61067d565b6040519081526020015b60405180910390f35b3660011981013560f01c90033560601c5b6040516001600160a01b039091168152602001610247565b60408051808201909152601481527f4c697175696469747920426f6f6b20546f6b656e00000000000000000000000060208201525b6040516102479190614ef0565b6102c36106ab565b604080516001600160801b03938416815292909116602083015201610247565b6102c36102f1366004614f36565b62ffffff166000908152600760205260409020546001600160801b0381169160809190911c90565b6103216106e5565b60405161ffff9091168152602001610247565b610347610342366004615027565b610706565b005b61035c6103573660046150f5565b61075b565b60405161024793929190615198565b6103476103793660046151c9565b610a3a565b61023d61038c366004614f36565b610ad9565b6103a461039f366004615260565b610b09565b6040516102479190615322565b61023d6103bf366004615343565b610beb565b6103cc610f11565b6040805160ff909616865261ffff9485166020870152939092169284019290925264ffffffffff918216606084015216608082015260a001610247565b61034761041736600461537c565b610fb8565b61042461101c565b6040805161ffff9889168152968816602088015294871694860194909452918516606085015262ffffff9081166080850152931660a08301529190911660c082015260e001610247565b7f0000000000000000000000000000000000000000000000000000000000000000610261565b6104a76104a2366004615402565b611084565b6040805167ffffffffffffffff94851681529284166020840152921691810191909152606001610247565b6104da61117a565b6040805162ffffff95861681529385166020850152919093169082015264ffffffffff9091166060820152608001610247565b60408051808201909152600381526213109560ea1b60208201526102ae565b61023d6111ba565b610547610542366004615429565b611386565b60405162ffffff9091168152602001610247565b61056e610569366004615455565b611399565b604080516001600160801b0394851681529284166020840152921691810191909152606001610247565b61023d6105a636600461548f565b60009081526001602052604090205490565b6103476105c63660046154a8565b61153a565b6103a46105d93660046154c3565b6115ae565b6103476118ca565b6102c3611980565b3660011981013560f01c90036014013560601c610261565b61054761199b565b61034761061c366004615558565b6119a8565b61056e61062f366004615455565b6119b7565b610647610642366004615576565b611af8565b6040519015158152602001610247565b610347610665366004615594565b611b04565b61054761067836600461548f565b611d9f565b6001600160a01b0382166000908152602081815260408083208484529091529020545b92915050565b905090565b6000806106dc6106c8600654600554611dca90919063ffffffff16565b6001600160801b0381169160809190911c90565b90939092509050565b60006106a660003660011981013560f090811c90910360280135901c905090565b83336107128282611e04565b6107475760405163548f773d60e01b81526001600160a01b038084166004830152821660248201526044015b60405180910390fd5b61075386868686611e50565b505050505050565b600080606060016003541461078357604051635db5c7cd60e11b815260040160405180910390fd5b6002600355846107a65760405163296db0d960e01b815260040160405180910390fd5b8467ffffffffffffffff8111156107bf576107bf614f51565b6040519080825280602002602001820160405280156107e8578160200160208202803683370190505b50905060008567ffffffffffffffff81111561080657610806614f51565b60405190808252806020026020018201604052801561082f578160200160208202803683370190505b50905060008667ffffffffffffffff81111561084d5761084d614f51565b604051908082528060200260200182016040528015610876578160200160208202803683370190505b5060055460045491925090600061088c82611ff8565b90506108b1833660011981013560f01c90038035606090811c9160140135901c612004565b975087965060005b8a811015610989576000806108ef8b8f8f868181106108da576108da61561d565b9050602002013561204490919063ffffffff16565b9150915060008060006109048785878b612091565b919450925090506109158d83611dca565b9c508362ffffff168b878151811061092f5761092f61561d565b602002602001018181525050808a878151811061094e5761094e61561d565b602002602001018181525050828c878151811061096d5761096d61561d565b60200260200101818152505085600101955050505050506108b9565b5061099e6109978989611dca565b84906122bf565b6005556109ac8c86886122f9565b86156109d6576109d6873660011981013560f01c90038035606090811c9160140135901c8c612461565b8b6001600160a01b0316336001600160a01b03167f87f1f9dcf5e8089a3e00811b6a008d8f30293a3da878cb1fe8c90ca376402f8a8787604051610a1b929190615633565b60405180910390a3505050505060016003819055509450945094915050565b336001600160a01b037f00000000000000000000000000000000000000000000000000000000000000001614610a8357604051632486085360e01b815260040160405180910390fd5b6004548015610aa5576040516359e270a560e01b815260040160405180910390fd5b610aad6124bf565b610ace610ac2610abd83856124cb565b61251a565b8a8a8a8a8a8a8a61256e565b505050505050505050565b60006106a0610afd60003660011981013560f090811c90910360280135901c905090565b62ffffff8416906126f5565b606082518251808214610b2f576040516340311ffd60e11b815260040160405180910390fd5b845167ffffffffffffffff811115610b4957610b49614f51565b604051908082528060200260200182016040528015610b72578160200160208202803683370190505b50925060005b8551811015610be257610bbd868281518110610b9657610b9661561d565b6020026020010151868381518110610bb057610bb061561d565b602002602001015161067d565b848281518110610bcf57610bcf61561d565b6020908102919091010152600101610b78565b50505092915050565b6000600160035414610c1057604051635db5c7cd60e11b815260040160405180910390fd5b6002600355600554600654600085610c4457610c3f3660011981013560f01c90036014013560601c849061272c565b610c5e565b610c5e3660011981013560f01c90033560601c8490612761565b9050610c6a83826122bf565b925080610c8a57604051637df801c760e01b815260040160405180910390fd5b6004546000610cae60003660011981013560f090811c90910360280135901c905090565b90506000610cbb83611ff8565b9050610cc683612790565b92505b62ffffff8116600090815260076020526040902054610ce9818b15612805565b610e1b57610cf78483612834565b93506000806000610d1987878f888c896128ca9095949392919063ffffffff16565b919450925090508215610e1757610d308884611dca565b9750610d3c8b836122bf565b9a506000610d57610d4c89612a92565b839061ffff16612aa2565b90508015610d7857610d698a826122bf565b9950610d758482611dca565b93505b610d8c83610d8687876122bf565b90611dca565b62ffffff87166000908152600760205260409020556001600160a01b038d16337fad7d6f97abf51ce18e17a38f4d70e975be9c0708474987bb3e26ad21bd93ca70888787610dd98e612b15565b6040805162ffffff9586168152602081019490945283019190915290911660608201526080810186905260a0810185905260c00160405180910390a3505b5050505b84610e265750610e70565b6000610e328b84612b26565b905062ffffff81161580610e4a575062ffffff818116145b15610e6857604051631a6d7fb160e31b815260040160405180910390fd5b915050610cc9565b86610e8e5760405163439df85d60e11b815260040160405180910390fd5b610e988688611dca565b6005556006859055610eac600b8483612b48565b9250610eb883826124cb565b6004558815610ee457610edf3660011981013560f01c90036014013560601c88908a612c58565b610eff565b610eff3660011981013560f01c90033560601c88908a612c98565b50506001600355509295945050505050565b60045460789060009081908190819081610f2a82612ca9565b905061ffff811615610faf576000610f43600b83612cb9565b96509050610f5081612d16565b9650610f5b81612d22565b945064ffffffffff8516610f6e57600095505b61ffff861615610fad57610f9f8661ffff168361ffff1681610f9257610f92615658565b600b916001910601612d43565b9050610faa81612d22565b93505b505b50509091929394565b336001600160a01b037f0000000000000000000000000000000000000000000000000000000000000000161461100157604051632486085360e01b815260040160405180910390fd5b6110136004548888888888888861256e565b50505050505050565b600080600080600080600080600454905061103681612d16565b975061104181612d8c565b965061104c81612d9c565b955061105781612dac565b945061106281612dbc565b935061106d81612a92565b925061107881612dcd565b91505090919293949596565b6000806000806004549050600061109a82612ca9565b905061ffff811615806110b35750428664ffffffffff16115b156110ca5760008060009450945094505050611173565b60006110d8600b8389612dde565b91985096509450905064ffffffffff808816908216101561116f576111066110ff84611ff8565b8490612f01565b5060006111138289615684565b90508064ffffffffff1661112685611ff8565b62ffffff1661113591906156aa565b61113f90886156da565b96508064ffffffffff1661115285612b15565b62ffffff1661116191906156aa565b61116b90876156da565b9550505b5050505b9193909250565b6000806000806000600454905061119081612b15565b945061119b81612f18565b93506111a681612f29565b92506111b181612f3a565b91505090919293565b60006001600354146111df57604051635db5c7cd60e11b815260040160405180910390fd5b60026003819055507f00000000000000000000000000000000000000000000000000000000000000006001600160a01b0316634ccb20c06040518163ffffffff1660e01b8152600401602060405180830381865afa158015611245573d6000803e3d6000fd5b505050506040513d601f19601f820116820180604052508101906112699190615706565b6001600160a01b0316336001600160a01b03161461129a57604051630f8937c560e21b815260040160405180910390fd5b6006546001600160801b038116608082901c60006112f5826112bd5760006112c0565b60015b60ff166000856001600160801b0316116112db5760006112de565b60015b60ff169060801b6001600160801b03919091161790565b90506113018482611dca565b9450841561137857600681905560055461131b9086611dca565b600555611342853660011981013560f01c90038035606090811c9160140135901c33612461565b60405185815233907f3f41a5ddc53701cc7db577ade4f1fca9838a8ec0b5ea50b9f0f5d17bc4554e329060200160405180910390a25b505060016003555090919050565b60006113928383612b26565b9392505050565b60045460009083908290816113c360003660011981013560f090811c90910360280135901c905090565b905060006113d083611ff8565b90506113db83612790565b92505b62ffffff81166000908152600760205260408120546113fe908915612f4d565b90506001600160801b038116156114e457600061142062ffffff8416856126f5565b90506000876001600160801b0316836001600160801b0316116114435782611445565b875b90506114518685612f01565b955060008a6114745761146f6001600160801b038316846080612f6d565b611489565b6114896001600160801b038316608085612fa3565b905060006114978888612fd9565b905060006114ae6001600160801b03841683612ff8565b90506114ba8184615723565b6114c4908d615723565b9b506114d0848c615745565b9a506114dc818b615723565b995050505050505b6001600160801b0386166114f85750611530565b60006115048984612b26565b905062ffffff8116158061151c575062ffffff818116145b15611528575050611530565b9150506113de565b5050509250925092565b600454600061154882612ca9565b905061ffff811661156457506001611560828261306a565b6004555b611570600b82856130b9565b60405161ffff8416815233907fc975541e72d695746a43ba65745d79963a23082637c8f4609354d9bcf70194d69060200160405180910390a2505050565b60606001600354146115d357604051635db5c7cd60e11b815260040160405180910390fd5b600260035586336115e48282611e04565b6116145760405163548f773d60e01b81526001600160a01b0380841660048301528216602482015260440161073e565b8515806116215750858414155b1561163f57604051633ab7870760e01b815260040160405180910390fd5b8567ffffffffffffffff81111561165857611658614f51565b604051908082528060200260200182016040528015611681578160200160208202803683370190505b5092506000805b878110156117c35760006116b38a8a848181106116a7576116a761561d565b905060200201356131a2565b905060008888848181106116c9576116c961561d565b90506020020135905080600014156116fb57604051636996a92560e01b815262ffffff8316600482015260240161073e565b62ffffff8216600090815260076020908152604080832054600190925282205490919061172b90839085906131cd565b9050806117525760405163fd44792960e01b815262ffffff8516600482015260240161073e565b61175c8282611dca565b9150816117705761176e600885613245565b505b62ffffff84166000908152600760205260409020829055885181908a908790811061179d5761179d61561d565b60209081029190910101526117b286826122bf565b955084600101945050505050611688565b506005546117d19082611dca565b6005819055506118458a89898080602002602001604051908101604052809392919081815260200183836020028082843760009201919091525050604080516020808d0282810182019093528c82529093508c92508b9182918501908490808284376000920191909152506132e092505050565b611869813660011981013560f01c90038035606090811c9160140135901c8c612461565b886001600160a01b0316336001600160a01b03167fa32e146844d6144a22e94c586715a1317d58a8aa3581ec33d040113ddcb243508a8a886040516118b093929190615765565b60405180910390a350506001600355509695505050505050565b336001600160a01b037f0000000000000000000000000000000000000000000000000000000000000000161461191357604051632486085360e01b815260040160405180910390fd5b6004546119276119228261251a565b61346f565b600455337f282afaeeae84c1d85ad1424a3aa2ddbedaeefca3b1e53d889d15265fe44db7fc61195583612f29565b61195e84612f18565b6040805162ffffff93841681529290911660208301520160405180910390a250565b60065460009081906001600160801b0381169060801c6106dc565b60006106a6600454611ff8565b6119b33383836134a4565b5050565b60008080806119cf6001600160801b0387168661354f565b60045490915060006119f660003660011981013560f090811c90910360280135901c905090565b90506000611a0383611ff8565b9050611a0e83612790565b92505b62ffffff8116600090815260076020526040902054611a31818a15612805565b611a9e57611a3f8483612834565b935060008080611a538488888f898d6128ca565b919450925090508215611a9a57611a6a8884611dca565b9750611a77828d15612f4d565b611a81908b615723565b9950611a8d818d612f4d565b611a97908a615723565b98505b5050505b84611aa95750611ae1565b6000611ab58a84612b26565b905062ffffff81161580611acd575062ffffff818116145b15611ad9575050611ae1565b915050611a11565b611aeb8489612f4d565b9650505050509250925092565b60006113928383611e04565b600160035414611b2757604051635db5c7cd60e11b815260040160405180910390fd5b600260035582611b4a5760405163727ab02160e11b815260040160405180910390fd5b6005546004546000611b5b86613560565b9050611b81863660011981013560f01c90038035606090811c9160140135901c8a612461565b604051631faa6b8760e01b81527fab5c473bce5960a8292e9c8db82f9272504caab4e9ef09553fc112f82b62a3c2906001600160a01b03891690631faa6b8790611bf49033903660011981013560f01c90038035606090811c92601490920135901c908d9089908e908e906004016157cb565b6020604051808303816000875af1158015611c13573d6000803e3d6000fd5b505050506040513d601f19601f82011682018060405250810190611c37919061582f565b14611c5557604051634a57011360e01b815260040160405180910390fd5b6000611c7a813660011981013560f01c90038035606090811c9160140135901c612004565b9050611c90611c8985846122bf565b8290613668565b15611cae57604051630e3c717160e11b815260040160405180910390fd5b611cb88185611dca565b91506000611cd3611cc885612a92565b849061ffff16612aa2565b90506000611ce085611ff8565b6005849055600654909150611cf590836122bf565b600655611d20611d058584611dca565b62ffffff8316600090815260076020526040902054906122bf565b62ffffff82166000818152600760209081526040918290209390935580519182529181018b9052908101859052606081018390526001600160a01b038b169033907fd126bd9d94daca8e55ffd8283fac05394aec8326c6b1639e1e8a445fbe8bbc7d9060800160405180910390a3505060016003555050505050505050565b60006106a0611dc360003660011981013560f090811c90910360280135901c905090565b83906136ac565b80820382811180611de657506001600160801b03808416908216115b156106a05760405163e599af5560e01b815260040160405180910390fd5b6000816001600160a01b0316836001600160a01b031614806113925750506001600160a01b03918216600090815260026020908152604080832093909416825291909152205460ff1690565b81518151808214611e74576040516340311ffd60e11b815260040160405180910390fd5b846001600160a01b0381161580611e9357506001600160a01b03811630145b15611eb1576040516345c210e760e11b815260040160405180910390fd5b6001600160a01b0380881660009081526020819052604080822092891682528120905b8751811015611f95576000888281518110611ef157611ef161561d565b602002602001015190506000888381518110611f0f57611f0f61561d565b60200260200101519050600085600084815260200190815260200160002054905081811015611f6a576040516358b4690f60e01b81526001600160a01b038e166004820152602481018490526044810183905260640161073e565b6000928352602086815260408085209284900390925585905290912080549091019055600101611ed4565b50876001600160a01b0316896001600160a01b0316336001600160a01b03167f4a39dc06d4c0dbc64b70af90fd698a233a518aa5d07e595d983b8c0526c8f7fb8a8a604051611fe5929190615633565b60405180910390a4505050505050505050565b600060e882901c6106a0565b600061203c84610d86612016856136f1565b61201f876136f1565b6001600160801b03169060801b6001600160801b03919091161790565b949350505050565b600080600080600061205587613760565b670de0b6b3a764000060808a811c90930281900490921b6001600160801b038a81169094029290920490921617955093505050505b9250929050565b62ffffff831660009081526007602052604081205481908190816120ca60003660011981013560f090811c90910360280135901c905090565b905060006120dd62ffffff8a16836126f5565b905060006120fc8a62ffffff1660009081526001602052604090205490565b905061210a848a8484613803565b909750955085945062ffffff8a8116908c16141561223e5761212c888b612f01565b9750600061213e858a868a868d613926565b9050801561223857600061215c846121568a85611dca565b90613a18565b9050600061216a8786613a18565b9050612177828583613aa6565b995060006121926121878d612a92565b859061ffff16612aa2565b905080156121b8576121a48982611dca565b6006549099506121b490826122bf565b6006555b6121ce8c8f600b612b489092919063ffffffff16565b9b508b600481905550336001600160a01b03167f3f0b46725027bb418b2005f4683538eccdbcdf1de2b8649a29dbd9c507d16ff48f868460405161222c9392919062ffffff9390931683526020830191909152604082015260600190565b60405180910390a25050505b50612249565b612249868c8c613ac6565b861580612254575084155b1561227957604051634c98d35760e11b815262ffffff8b16600482015260240161073e565b8361228b5761228960088b613b31565b505b61229584866122bf565b600760008c62ffffff16815260200190815260200160002081905550505050509450945094915050565b818101828110806122db57506001600160801b03808416908216105b156106a0576040516316692de960e01b815260040160405180910390fd5b826001600160a01b038116158061231857506001600160a01b03811630145b15612336576040516345c210e760e11b815260040160405180910390fd5b8251825180821461235a576040516340311ffd60e11b815260040160405180910390fd5b6001600160a01b0386166000908152602081905260408120905b86518110156123ff5760008782815181106123915761239161561d565b6020026020010151905060008783815181106123af576123af61561d565b60200260200101519050806001600084815260200190815260200160002060008282546123dc9190615848565b909155505060009182526020849052604090912080549091019055600101612374565b50866001600160a01b031660006001600160a01b0316336001600160a01b03167f4a39dc06d4c0dbc64b70af90fd698a233a518aa5d07e595d983b8c0526c8f7fb8989604051612450929190615633565b60405180910390a450505050505050565b6001600160801b038416608085901c8115612493576124936001600160a01b038616846001600160801b038516613bbb565b6001600160801b03811615610753576107536001600160a01b038516846001600160801b038416613bbb565b6124c96001600355565b565b60007cffffffffffffffffffffffffffffffffffffffffffffffffffffffffff83167fffffff000000000000000000000000000000000000000000000000000000000060e884901b1617611392565b60008061252683611ff8565b90507fffffffffffffffffffff000000ffffffffffffffffffffffffffffffffffffff831675ffffff00000000000000000000000000000000000000609883901b1617611392565b61ffff8716158015612582575061ffff8616155b8015612590575061ffff8516155b801561259e575061ffff8416155b80156125ad575062ffffff8316155b80156125bb575061ffff8216155b80156125ca575062ffffff8116155b156125e8576040516331375e0360e11b815260040160405180910390fd5b6125f88888888888888888613c71565b9750600061261b60003660011981013560f090811c90910360280135901c905090565b905060006126298a84613d7a565b905060006126378284613dd8565b6126418385613e18565b61264b9190615848565b905067016345785d8a0000811115612676576040516372db9c0b60e11b815260040160405180910390fd5b50505060048890556040805161ffff8981168252888116602083015287811682840152868116606083015262ffffff868116608084015290851660a0830152831660c0820152905133917fd09e5ddc721ff14c5c1e66a305cbba1fd70b82c5232bc391aad6f55e62e4b046919081900360e00190a25050505050505050565b600061271061ffff60801b608084901b1604600160801b0162ffffff8416627fffff19016127238282613e3c565b95945050505050565b6000806127398460801c90565b905061203c81612748856136f1565b6127529190615745565b6001600160801b031660801b90565b60006001600160801b03831661203c8161277a856136f1565b6127849190615745565b6001600160801b031690565b60008061279c83612f3a565b6127ad9064ffffffffff1642615860565b90506127b883612d8c565b61ffff1681106127fc576127cb8361251a565b92506127d683612d9c565b61ffff1681106127f0576127eb836000614095565b6127f9565b6127f98361346f565b92505b61139283614103565b600081612825576128168360801c90565b6001600160801b031615611392565b50506001600160801b03161590565b60008061284084612f29565b62ffffff1690506000818462ffffff16116128695761286462ffffff851683615860565b612878565b6128788262ffffff8616615860565b90506000612710820261288a87612f18565b62ffffff16019050600061289d87612dcd565b62ffffff1690508082116128b157816128b3565b805b91506128bf8783613d7a565b979650505050505050565b60008080806128de62ffffff8716896126f5565b905060006128ed8b8915612f4d565b90506000886129185761291361290e6001600160801b038416856080612f6d565b61415c565b612930565b61293061290e6001600160801b038416608086612fa3565b9050600061293e8c8c612fd9565b905060006129556001600160801b03841683612ff8565b90506129618184615723565b9250600061296f8a8d612f4d565b9050600080856001600160801b0316836001600160801b03161061299a575084915082905085612a10565b6129ad6001600160801b03841686614186565b915060006129bb8385615745565b6001600160801b031690508e6129df576129da61290e8260808c6141e6565b6129ee565b6129ee61290e828b6080614210565b9150876001600160801b0316826001600160801b03161115612a0e578791505b505b8d612a4a57612a28836001600160801b031660801b90565b6001600160801b038216612a45846001600160801b031660801b90565b612a72565b6001600160801b038316612a67826001600160801b031660801b90565b6001600160801b0384165b809b50819c50829d50505050505050505050505096509650969350505050565b60006106a082604e1c613fff1690565b60006001600160801b038216612aba575060006106a0565b6127106001600160801b038316811015612ae757604051631514a94960e21b815260040160405180910390fd5b6001600160801b03848116840282900490608086811c86028490049183169082901b175b9695505050505050565b60006106a08260701c620fffff1690565b600082612b3d57612b3860088361427e565b611392565b6113926008836143ca565b600080612b5484612ca9565b905061ffff8116612b685783915050611392565b6000612b748683612d43565b90506000612b81826144fa565b90506000612b8e83614506565b612b9b9060ff1683615877565b90508064ffffffffff16612bae42614515565b64ffffffffff161115612c4c576000806000612beb8464ffffffffff1642038a612bd78d612b15565b612be18e8e61453d565b8a9392919061456d565b9250925092506000612bfc87612d16565b905064ffffffffff861642036078811115612c2c575096879006600101964295506000612c298c8a61306a565b9b505b612c3a82868686858c6145d2565b97505050505050612c4c888585614676565b50949695505050505050565b6000612c648460801c90565b90506001600160801b03811615612c9257612c926001600160a01b038416836001600160801b038416613bbb565b50505050565b60006001600160801b038416612c64565b60006106a08260d81c61ffff1690565b600080612cc68484612d43565b9150612cd182612d16565b90508061ffff168361ffff161461208a57612cf4612cef8583612d43565b612d16565b90508061ffff168361ffff1611612d0b5780612d0d565b825b90509250929050565b600061ffff82166106a0565b6000612d2d82614506565b60ff16612d39836144fa565b6106a09190615877565b60008161ffff8116612d685760405163944e113960e01b815260040160405180910390fd5b8361ffff60001985018116908110612d8257612d8261561d565b0154949350505050565b60006106a08260101c610fff1690565b60006106a082601c1c610fff1690565b60006106a08260281c613fff1690565b60006106a08260361c62ffffff1690565b60006106a082605c1c620fffff1690565b600080600080600080612df18989612cb9565b909250905064ffffffffff8716612e288a612e0c848c615897565b61ffff1661ffff8110612e2157612e2161561d565b0154612d22565b64ffffffffff161115612e4e57604051631c4e7f9560e21b815260040160405180910390fd5b612e5782612d22565b95508664ffffffffff168664ffffffffff1611612e995785612e78836146bc565b612e81846146d2565b612e8a856146e8565b95509550955095505050612ef8565b869550600080612eab8b8b8b866146fe565b91509150600089612ebb83612d22565b612ec59190615684565b90506000612ed284612d22565b612edc908c615684565b9050612eea84848484614848565b919a50985096505050505050505b93509350935093565b6000612f0c83612790565b92506113928383612834565b60006106a08260841c620fffff1690565b60006106a08260981c62ffffff1690565b60006106a08260b01c64ffffffffff1690565b600081612f5e57612b388360801c90565b6001600160801b038316611392565b6000612f7a848484614210565b9050600160ff83161b80612f9057612f90615658565b838509156113925761203c600182615848565b6000612fb08484846141e6565b90508180612fc057612fc0615658565b600160ff85161b8509156113925761203c600182615848565b6000611392612fe88484613dd8565b612ff28585613e18565b0161415c565b60008167016345785d8a0000816001600160801b0316111561302d57604051633c80c46f60e21b815260040160405180910390fd5b6001600160801b03808416670de0b6b3a7640000819003918291600019918816028201018161305e5761305e615658565b049250505b5092915050565b60007fffffff0000ffffffffffffffffffffffffffffffffffffffffffffffffffffff83167cffff00000000000000000000000000000000000000000000000000000060d884901b1617611392565b60006130c58484612d43565b905060006130d282612d16565b90508261ffff168161ffff16106130fc57604051632c57574160e21b815260040160405180910390fd5b60008461ffff168261ffff161461312d5761ffff821615613126576131218683612d43565b61312f565b600061312f565b825b9050600061313c82612d16565b61ffff169050808661ffff16116131535780613159565b8561ffff165b905061ffff83165b8561ffff1681101561318b5781888261ffff81106131815761318161561d565b0155600101613161565b50611013878761ffff868116881890891617614676565b8062ffffff811681146131c857604051639b63641560e01b815260040160405180910390fd5b919050565b60006001600160801b038416608085901c82808315613200576131fd61290e886001600160801b03871689613aa6565b91505b6001600160801b038316156132295761322661290e886001600160801b03861689613aa6565b90505b608081901b6001600160801b0383161798975050505050505050565b61ffff600882901c166000818152600284016020526040812054909190600160ff85161b1981168082146132d45760008381526002870160205260409020819055806132c857600883901c600081815260018089016020526040909120805460ff87169290921b19821690559250826132c6578654600160ff83161b191687555b505b600193505050506106a0565b50600095945050505050565b826001600160a01b03811615806132ff57506001600160a01b03811630145b1561331d576040516345c210e760e11b815260040160405180910390fd5b82518251808214613341576040516340311ffd60e11b815260040160405180910390fd5b6001600160a01b0386166000908152602081905260408120905b865181101561341e5760008782815181106133785761337861561d565b6020026020010151905060008783815181106133965761339661561d565b602002602001015190506000846000848152602001908152602001600020549050818110156133f057604051625b387760e31b81526001600160a01b038c166004820152602481018490526044810183905260640161073e565b506000918252600160208181526040808520805485900390559086905290922080549190910390550161335b565b5060006001600160a01b0316876001600160a01b0316336001600160a01b03167f4a39dc06d4c0dbc64b70af90fd698a233a518aa5d07e595d983b8c0526c8f7fb8989604051612450929190615633565b60008061347b83612b15565b62ffffff169050600061348d84612dac565b61ffff169050612710828202046127238582614095565b816001600160a01b0316836001600160a01b031614156134e25760405163782ee70760e01b81526001600160a01b038416600482015260240161073e565b6001600160a01b03838116600081815260026020908152604080832094871680845294825291829020805460ff191686151590811790915591519182527f17307eab39ab6107e8899845ad3d59bd9653f200f220920489ca2b5937696c31910160405180910390a3505050565b600081612f5e57612b388360801b90565b6000807f00000000000000000000000000000000000000000000000000000000000000006001600160a01b031663fd90c2be6040518163ffffffff1660e01b8152600401602060405180830381865afa1580156135c1573d6000803e3d6000fd5b505050506040513d601f19601f820116820180604052508101906135e5919061582f565b90506001600160801b0383811690608085901c90670de0b6b3a763ffff9061361e90670de0b6b3a7640000908616850283015b0461415c565b9250613650670de0b6b3a764000082866001600160801b0316856001600160801b031602018161361857613618615658565b915050608081901b6001600160801b03831617612723565b60006001600160801b0383811690608085811c9185169085901c818410806128bf5750806001600160801b0316836001600160801b03161094505050505092915050565b600061271061ffff60801b608084901b1604600160801b01816136ce826149a6565b6136d7866149a6565b6136e191906158b8565b90506127238162800000016131a2565b6040516370a0823160e01b81523060048201526000906106a0906001600160a01b038416906370a0823190602401602060405180830381865afa15801561373c573d6000803e3d6000fd5b505050506040513d601f19601f8201168201806040525081019061290e919061582f565b600080806137788460581c67ffffffffffffffff1690565b925061378e8460181c67ffffffffffffffff1690565b91505062ffffff831672ffffffffffffffffffffffffffffffffffffff8411806137c95750670de0b6b3a76400008367ffffffffffffffff16115b806137e55750670de0b6b3a76400008267ffffffffffffffff16115b1561117357604051637752557f60e11b815260040160405180910390fd5b60008060006138128686613a18565b905083158061381f575080155b1561382e57915084905061391d565b600061383a8887613a18565b90508061384c5750915084905061391d565b613857828683613aa6565b93506000613866858388614ab1565b90508083111561391657600061387c8285615860565b90506001600160801b03891660808a901c600160801b83106138cc57608083901c8181116138aa57806138ac565b815b90506138b88183615860565b91506138c8608082901b85615860565b9350505b8983106139005760006138df8b856158e6565b90508281116138ee57806138f0565b825b90506138fc8184615860565b9250505b608081901b6001600160801b038316179a505050505b5086925050505b94509492505050565b60008161393557506000612b0b565b6001600160801b038416608085901c6000806139676106c86139578d8b6122bf565b88613962818c615848565b6131cd565b91509150836001600160801b0316826001600160801b031611156139ca5760006139ad6139948c8c612fd9565b61399e8487615745565b6001600160801b031690614ace565b90506139c2816001600160801b031660801b90565b955050613a0a565b826001600160801b0316816001600160801b03161115613a0a5760006139fd6139f38c8c612fd9565b61399e8588615745565b6001600160801b03169550505b505050509695505050505050565b60006001600160801b038316608084901c8115613a705783820292508115801590613a52575083828481613a4e57613a4e615658565b0414155b15613a70576040516363f1e01f60e01b815260040160405180910390fd5b8015613a9e5760801b9182019180831015613a9e576040516363f1e01f60e01b815260040160405180910390fd5b505092915050565b6000806000613ab58686614b38565b91509150612b0b8686868585614b57565b8162ffffff168162ffffff16108015613ae25750608083901b15155b80613b0757508162ffffff168162ffffff16118015613b0757506001600160801b0383115b15613b2c5760405163227bd87160e21b815262ffffff8216600482015260240161073e565b505050565b61ffff600882901c166000818152600284016020526040812054909190600160ff85161b81178082146132d45760008381526002870160205260409020819055816132c857600883901c600081815260018089016020526040909120805460ff87169290921b821790559250826132c6578654600160ff83161b17875550600193505050506106a0565b604080516001600160a01b03848116602483015260448083018590528351808403909101815260649092019092526020810180517bffffffffffffffffffffffffffffffffffffffffffffffffffffffff1663a9059cbb60e01b17905290600090613c2890861683614c00565b905060008151118015613c4c575080806020019051810190613c4a91906158fa565b155b15613c6a5760405163197138bd60e11b815260040160405180910390fd5b5050505050565b60008561ffff168761ffff161180613c8e5750610fff8661ffff16115b80613c9e57506127108561ffff16115b80613cae57506109c48361ffff16115b80613cc05750620fffff8262ffffff16115b15613cde57604051631c07203f60e01b815260040160405180910390fd5b5060109590951b630fff00001661ffff9690961695909517601c9390931b64fff00000001692909217663fff000000000060289290921b919091161760369190911b693fffffc000000000000016176b0fffc0000000000000000000604e9390931b92909216919091176dfffff00000000000000000000000605c9290921b91909116176dffffffffffffffffffffffffffff19919091161790565b6000620fffff8262ffffff161115613da557604051631c07203f60e01b815260040160405180910390fd5b700fffff0000000000000000000000000000198316700fffff0000000000000000000000000000607084901b1617611392565b600080613de484612dbc565b62ffffff16905080156130635760008361ffff16613e0186612b15565b62ffffff160290506064606382800284020161305e565b60008161ffff16613e2884612d16565b61ffff16026402540be40002905092915050565b6000808083613e545750600160801b91506106a09050565b50826000811215613e66579015906000035b6210000081101561405657600160801b9250846001600160801b03811115613e9057911591600019045b6001821615613ea15792830260801c925b800260801c6002821615613eb75792830260801c925b800260801c6004821615613ecd5792830260801c925b800260801c6008821615613ee35792830260801c925b800260801c6010821615613ef95792830260801c925b800260801c6020821615613f0f5792830260801c925b800260801c6040821615613f255792830260801c925b8002608090811c90821615613f3c5792830260801c925b800260801c610100821615613f535792830260801c925b800260801c610200821615613f6a5792830260801c925b800260801c610400821615613f815792830260801c925b800260801c610800821615613f985792830260801c925b800260801c611000821615613faf5792830260801c925b800260801c612000821615613fc65792830260801c925b800260801c614000821615613fdd5792830260801c925b800260801c618000821615613ff45792830260801c925b800260801c6201000082161561400c5792830260801c925b800260801c620200008216156140245792830260801c925b800260801c6204000082161561403c5792830260801c925b800260801c620800008216156140545792830260801c925b505b8261407e57604051631dba598d60e11b8152600481018690526024810185905260440161073e565b816140895782612723565b612723836000196158e6565b6000620fffff8262ffffff1611156140c057604051631c07203f60e01b815260040160405180910390fd5b7fffffffffffffffffffffffffff00000fffffffffffffffffffffffffffffffff831672fffff000000000000000000000000000000000608484901b1617611392565b60008061410f42614515565b90507fffffffffff0000000000ffffffffffffffffffffffffffffffffffffffffffff83167affffffffff0000000000000000000000000000000000000000000060b083901b1617611392565b806001600160801b03811681146131c857604051632f45db3d60e21b815260040160405180910390fd5b60008167016345785d8a0000816001600160801b031611156141bb57604051633c80c46f60e21b815260040160405180910390fd5b670de0b6b3a7640000670de0b6b3a763ffff6001600160801b03868116908616020104949350505050565b600060ff831684811b9061ffff6101008290031686901c90612b0b9087906001901b868585614b57565b600080600061421f8686614b38565b9150915081600014614235578360ff1682901c92505b801561427557600160ff85161b811061426157604051638e471a8960e01b815260040160405180910390fd5b8360ff166101000361ffff1681901b830192505b50509392505050565b60008061ffff600884901c1660ff8085169081146142d357600082815260028701602052604081205493506142b38483614ccb565b905060001981146142d15760089290921b90911792506106a0915050565b505b5060ff80821690600883901c90821461434d57600081815260018801602052604081205494506143038584614ccb565b9050600019811461434b57600882901b8117600081815260028a0160205260409020549550935061433385614cda565b60ff1660088560001c901b17955050505050506106a0565b505b60ff818116925082146143bd5786549350600061436a8584614ccb565b905060001981146143bb576000818152600189016020526040902054945090508061439485614cda565b60ff16600883901b17600081815260028a0160205260409020549550935061433385614cda565b505b5060009695505050505050565b60008061ffff600884901c1660ff8416801561441d57600082815260028701602052604081205493506143fd8483614d76565b9050600019811461441b5760089290921b90911792506106a0915050565b505b5060ff8116600882901c811561447c576000818152600188016020526040812054945061444a8584614d76565b9050600019811461447a57600882901b8117600081815260028a0160205260409020549550935061433385614d86565b505b60ff8116915081156144eb578654935060006144988584614d76565b905060001981146144e957600081815260018901602052604090205494509050806144c285614d86565b60ff16600883901b17600081815260028a0160205260409020549550935061433385614d86565b505b5062ffffff9695505050505050565b600060d882901c6106a0565b60006106a08260d01c60ff1690565b8064ffffffffff811681146131c8576040516350dbfc8760e11b815260040160405180910390fd5b60008061454984611ff8565b90508062ffffff168362ffffff16116145645782810361203c565b90910392915050565b64ffffffffff841662ffffff848116820291848216810291841602614591886146bc565b61459b90846156da565b92506145a6886146d2565b6145b090836156da565b91506145bb886146e8565b6145c590826156da565b9050955095509592505050565b60d082901b7aff000000000000000000000000000000000000000000000000000016609084901b79ffffffffffffffff00000000000000000000000000000000000016605086901b71ffffffffffffffff0000000000000000000016601088901b69ffffffffffffffff00001661ffff8a161717171760d882901b7fffffffffff0000000000000000000000000000000000000000000000000000001681176128bf565b8161ffff81166146995760405163944e113960e01b815260040160405180910390fd5b818461ffff600019860181169081106146b4576146b461561d565b015550505050565b60006106a08260101c67ffffffffffffffff1690565b60006106a08260501c67ffffffffffffffff1690565b60006106a08260901c67ffffffffffffffff1690565b600080808061470e600186615917565b61ffff16905060008060008961ffff1690505b8385116147cc57600060016147368688615848565b901c9050888183089a508b61ffff808d169081106147565761475661561d565b0154935061476384612d22565b92508964ffffffffff168364ffffffffff16111561478d57614786600182615860565b94506147c6565b8964ffffffffff168364ffffffffff1610156147b5576147ae816001615848565b95506147c6565b83849750975050505050505061391d565b50614721565b8164ffffffffff168964ffffffffff16101561481a5761ffff8a166147ef578799505b8a61ffff6000198c0181169081106148095761480961561d565b01548396509650505050505061391d565b8760018b089950828b61ffff808d169081106148385761483861561d565b015496509650505050505061391d565b600080600080614857886146bc565b67ffffffffffffffff169050600061486e896146d2565b67ffffffffffffffff16905060006148858a6146e8565b67ffffffffffffffff16905064ffffffffff87166148a9579194509250905061499c565b60006148b48a6146bc565b67ffffffffffffffff16905060006148cb8b6146d2565b67ffffffffffffffff16905060006148e28c6146e8565b67ffffffffffffffff16905064ffffffffff8b1661490a579197509550935061499c92505050565b600061492064ffffffffff808d16908e16615848565b9050808b64ffffffffff1685028d64ffffffffff168902018161494557614945615658565b049950808b64ffffffffff1684028d64ffffffffff168802018161496b5761496b615658565b049850808b64ffffffffff1683028d64ffffffffff168702018161499157614991615658565b049750505050505050505b9450945094915050565b600081600114156149ba5750607f19919050565b816149d85760405163125946cf60e11b815260040160405180910390fd5b60019190911c9060006f800000000000000000000000000000008310614a0057506001614a1b565b5060001982600160fe1b81614a1757614a17615658565b0492505b6000614a2a607f85901c614d86565b707f80000000000000000000000000000000607f82901b16935060ff16905083811c6f800000000000000000000000000000008114614aa6576f400000000000000000000000000000005b6000811315614aa457908002607f1c90600160801b8210614a9c579384019360019190911c905b60011d614a75565b505b50500260011b919050565b6000614abe848484613aa6565b90508180612f9057612f90615658565b60008167016345785d8a0000816001600160801b03161115614b0357604051633c80c46f60e21b815260040160405180910390fd5b6ec097ce7bc90715b34b9f1000000000806001600160801b03868116908616908102670de0b6b3a7640000919091010261305e565b6000806000198385098385029250828110838203039150509250929050565b600081614b7557838381614b6d57614b6d615658565b049050612723565b838210614b95576040516313eae71560e01b815260040160405180910390fd5b600084868809600186198101871660008190038190049091018683119095039490940294038390049390931760029290940460038102831880820284030280820284030280820284030280820284030280820284030290810290920390910292909202949350505050565b6060600080846001600160a01b031684604051614c1d9190615932565b6000604051808303816000865af19150503d8060008114614c5a576040519150601f19603f3d011682016040523d82523d6000602084013e614c5f565b606091505b50915091508115614ca4578051158015614c8157506001600160a01b0385163b155b15614c9f57604051633b99915360e21b815260040160405180910390fd5b61203c565b8051614cc3576040516373483fab60e11b815260040160405180910390fd5b805181602001fd5b60006113928360018401614e21565b60008160801b8015614cee57608091508092505b8260401b90508015614d01579150604001815b8260201b90508015614d14579150602001815b8260101b90508015614d27579150601001815b8260081b90508015614d3a579150600801815b8260041b90508015614d4d579150600401815b8260021b90508015614d60579150600201815b508160011b15614d6e576001015b60ff03919050565b6000611392836000198401614e4f565b60006001600160801b03821115614d9f5750608090811c905b67ffffffffffffffff821115614db757604091821c91015b63ffffffff821115614dcb57602091821c91015b61ffff821115614ddd57601091821c91015b60ff821115614dee57600891821c91015b600f821115614dff57600491821c91015b6003821115614e1057600291821c91015b60018211156131c857600101919050565b60ff81169190911c9060008215614e455781614e3c84614cda565b0160ff16611392565b5060001992915050565b60ff8181031691821b916000908315614e755780614e6c85614d86565b60ff160361203c565b506000199392505050565b6001600160a01b0381168114614e9557600080fd5b50565b60008060408385031215614eab57600080fd5b8235614eb681614e80565b946020939093013593505050565b60005b83811015614edf578181015183820152602001614ec7565b83811115612c925750506000910152565b6020815260008251806020840152614f0f816040850160208701614ec4565b601f01601f19169190910160400192915050565b803562ffffff811681146131c857600080fd5b600060208284031215614f4857600080fd5b61139282614f23565b634e487b7160e01b600052604160045260246000fd5b604051601f8201601f1916810167ffffffffffffffff81118282101715614f9057614f90614f51565b604052919050565b600067ffffffffffffffff821115614fb257614fb2614f51565b5060051b60200190565b600082601f830112614fcd57600080fd5b81356020614fe2614fdd83614f98565b614f67565b82815260059290921b8401810191818101908684111561500157600080fd5b8286015b8481101561501c5780358352918301918301615005565b509695505050505050565b6000806000806080858703121561503d57600080fd5b843561504881614e80565b9350602085013561505881614e80565b9250604085013567ffffffffffffffff8082111561507557600080fd5b61508188838901614fbc565b9350606087013591508082111561509757600080fd5b506150a487828801614fbc565b91505092959194509250565b60008083601f8401126150c257600080fd5b50813567ffffffffffffffff8111156150da57600080fd5b6020830191508360208260051b850101111561208a57600080fd5b6000806000806060858703121561510b57600080fd5b843561511681614e80565b9350602085013567ffffffffffffffff81111561513257600080fd5b61513e878288016150b0565b909450925050604085013561515281614e80565b939692955090935050565b600081518084526020808501945080840160005b8381101561518d57815187529582019590820190600101615171565b509495945050505050565b838152826020820152606060408201526000612723606083018461515d565b803561ffff811681146131c857600080fd5b600080600080600080600080610100898b0312156151e657600080fd5b6151ef896151b7565b97506151fd60208a016151b7565b965061520b60408a016151b7565b955061521960608a016151b7565b945061522760808a01614f23565b935061523560a08a016151b7565b925061524360c08a01614f23565b915061525160e08a01614f23565b90509295985092959890939650565b6000806040838503121561527357600080fd5b823567ffffffffffffffff8082111561528b57600080fd5b818501915085601f83011261529f57600080fd5b813560206152af614fdd83614f98565b82815260059290921b840181019181810190898411156152ce57600080fd5b948201945b838610156152f55785356152e681614e80565b825294820194908201906152d3565b9650508601359250508082111561530b57600080fd5b5061531885828601614fbc565b9150509250929050565b602081526000611392602083018461515d565b8015158114614e9557600080fd5b6000806040838503121561535657600080fd5b823561536181615335565b9150602083013561537181614e80565b809150509250929050565b600080600080600080600060e0888a03121561539757600080fd5b6153a0886151b7565b96506153ae602089016151b7565b95506153bc604089016151b7565b94506153ca606089016151b7565b93506153d860808901614f23565b92506153e660a089016151b7565b91506153f460c08901614f23565b905092959891949750929550565b60006020828403121561541457600080fd5b813564ffffffffff8116811461139257600080fd5b6000806040838503121561543c57600080fd5b823561544781615335565b9150612d0d60208401614f23565b6000806040838503121561546857600080fd5b82356001600160801b038116811461547f57600080fd5b9150602083013561537181615335565b6000602082840312156154a157600080fd5b5035919050565b6000602082840312156154ba57600080fd5b611392826151b7565b600080600080600080608087890312156154dc57600080fd5b86356154e781614e80565b955060208701356154f781614e80565b9450604087013567ffffffffffffffff8082111561551457600080fd5b6155208a838b016150b0565b9096509450606089013591508082111561553957600080fd5b5061554689828a016150b0565b979a9699509497509295939492505050565b6000806040838503121561556b57600080fd5b823561547f81614e80565b6000806040838503121561558957600080fd5b823561536181614e80565b600080600080606085870312156155aa57600080fd5b84356155b581614e80565b935060208501359250604085013567ffffffffffffffff808211156155d957600080fd5b818701915087601f8301126155ed57600080fd5b8135818111156155fc57600080fd5b88602082850101111561560e57600080fd5b95989497505060200194505050565b634e487b7160e01b600052603260045260246000fd5b604081526000615646604083018561515d565b8281036020840152612723818561515d565b634e487b7160e01b600052601260045260246000fd5b634e487b7160e01b600052601160045260246000fd5b600064ffffffffff838116908316818110156156a2576156a261566e565b039392505050565b600067ffffffffffffffff808316818516818304811182151516156156d1576156d161566e565b02949350505050565b600067ffffffffffffffff8083168185168083038211156156fd576156fd61566e565b01949350505050565b60006020828403121561571857600080fd5b815161139281614e80565b60006001600160801b038083168185168083038211156156fd576156fd61566e565b60006001600160801b03838116908316818110156156a2576156a261566e565b6040815282604082015260007f07ffffffffffffffffffffffffffffffffffffffffffffffffffffffffffffff84111561579e57600080fd5b8360051b808660608501378083019050606081016000815260608483030160208501526128bf818661515d565b60006001600160a01b03808a168352808916602084015280881660408401525085606083015284608083015260c060a08301528260c0830152828460e0840137600060e0848401015260e0601f19601f850116830101905098975050505050505050565b60006020828403121561584157600080fd5b5051919050565b6000821982111561585b5761585b61566e565b500190565b6000828210156158725761587261566e565b500390565b600064ffffffffff8083168185168083038211156156fd576156fd61566e565b600061ffff808416806158ac576158ac615658565b92169190910692915050565b6000826158c7576158c7615658565b600160ff1b8214600019841416156158e1576158e161566e565b500590565b6000826158f5576158f5615658565b500490565b60006020828403121561590c57600080fd5b815161139281615335565b600061ffff838116908316818110156156a2576156a261566e565b60008251615944818460208701614ec4565b919091019291505056fea2646970667358221220d79ac2f0bb50c173161e47f03dd9a681ef083fbf7ad29e3d99a0fabbc55fa11864736f6c634300080a0033",
    "linkReferences": {}
  },
  "methodIdentifiers": {
    "approveForAll(address,bool)": "e584b654",
    "balanceOf(address,uint256)": "00fdd58e",
    "balanceOfBatch(address[],uint256[])": "4e1273f4",
    "batchTransferFrom(address,address,uint256[],uint256[])": "17fad7fc",
    "burn(address,address,uint256[],uint256[])": "c9939f5e",
    "collectProtocolFees()": "a1af5b9a",
    "flashLoan(address,bytes32,bytes)": "ea3446bf",
    "forceDecay()": "d3b9fbe4",
    "getActiveId()": "dbe65edc",
    "getBin(uint24)": "0abe9688",
    "getBinStep()": "17f11ecc",
    "getFactory()": "88cc58e4",
    "getIdFromPrice(uint256)": "f5e29329",
    "getNextNonEmptyBin(bool,uint24)": "a41a01fb",
    "getOracleParameters()": "55182894",
    "getOracleSampleAt(uint40)": "8940a16a",
    "getPriceFromId(uint24)": "4c7cffbd",
    "getProtocolFees()": "d8dfcea0",
    "getReserves()": "0902f1ac",
    "getStaticFeeParameters()": "7ca0de30",
    "getSwapIn(uint128,bool)": "abcd7830",
    "getSwapOut(uint128,bool)": "e77366f8",
    "getTokenX()": "05e8746d",
    "getTokenY()": "da10610c",
    "getVariableFeeParameters()": "8d7024e5",
    "increaseOracleLength(uint16)": "c7bd6586",
    "initialize(uint16,uint16,uint16,uint16,uint24,uint16,uint24,uint24)": "47973bff",
    "isApprovedForAll(address,address)": "e985e9c5",
    "mint(address,bytes32[],address)": "383d15c5",
    "name()": "06fdde03",
    "setStaticFeeParameters(uint16,uint16,uint16,uint16,uint24,uint16,uint24)": "6653851a",
    "swap(bool,address)": "53c059a0",
    "symbol()": "95d89b41",
    "totalSupply(uint256)": "bd85b039"
  },
  "id": 28
}